{
  "_format": "hh-sol-artifact-1",
  "contractName": "SortedBallot",
  "sourceName": "contracts/SortedBallot.sol",
  "abi": [
    {
      "inputs": [
        {
          "internalType": "bytes32[]",
          "name": "proposalNames",
          "type": "bytes32[]"
        }
      ],
      "stateMutability": "nonpayable",
      "type": "constructor"
    },
    {
      "inputs": [
        {
          "internalType": "uint256",
          "name": "",
          "type": "uint256"
        }
      ],
      "name": "proposals",
      "outputs": [
        {
          "internalType": "bytes32",
          "name": "name",
          "type": "bytes32"
        },
        {
          "internalType": "uint256",
          "name": "voteCount",
          "type": "uint256"
        }
      ],
      "stateMutability": "view",
      "type": "function"
    },
    {
      "inputs": [],
      "name": "sortProposals",
      "outputs": [],
      "stateMutability": "nonpayable",
      "type": "function"
    }
  ],
  "bytecode": "0x608060405234801561001057600080fd5b5060405161046838038061046883398101604081905261002f916100c2565b60005b81518110156100a5576000604051806040016040528084848151811061005a5761005a61017f565b6020908102919091018101518252600091810182905283546001818101865594835291819020835160029093020191825591909101519101558061009d81610195565b915050610032565b50506101bc565b634e487b7160e01b600052604160045260246000fd5b600060208083850312156100d557600080fd5b82516001600160401b03808211156100ec57600080fd5b818501915085601f83011261010057600080fd5b815181811115610112576101126100ac565b8060051b604051601f19603f83011681018181108582111715610137576101376100ac565b60405291825284820192508381018501918883111561015557600080fd5b938501935b828510156101735784518452938501939285019261015a565b98975050505050505050565b634e487b7160e01b600052603260045260246000fd5b6000600182016101b557634e487b7160e01b600052601160045260246000fd5b5060010190565b61029d806101cb6000396000f3fe608060405234801561001057600080fd5b50600436106100365760003560e01c8063013cf08b1461003b5780637d260bae14610067575b600080fd5b61004e6100493660046101f0565b610071565b6040805192835260208301919091520160405180910390f35b61006f61009f565b005b6000818154811061008157600080fd5b60009182526020909120600290910201805460019091015490915082565b600160005b6000806100b260018561021f565b815481106100c2576100c2610238565b60009182526020808320604080518082019091526002909302018054835260010154908201528154909250849081106100fd576100fd610238565b6000918252602090912060029091020154815111156101bc576000838154811061012957610129610238565b90600052602060002090600202016000600185610146919061021f565b8154811061015657610156610238565b90600052602060002090600202016000820154816000015560018201548160010155905050806000848154811061018f5761018f610238565b60009182526020918290208351600290920201908155910151600190910155816101b88161024e565b9250505b826101c68161024e565b600054909450841090506101ea57816000036101e157505050565b60009150600192505b506100a4565b60006020828403121561020257600080fd5b5035919050565b634e487b7160e01b600052601160045260246000fd5b8181038181111561023257610232610209565b92915050565b634e487b7160e01b600052603260045260246000fd5b60006001820161026057610260610209565b506001019056fea2646970667358221220684a8d0e15f0bb3820aabd32e6fa8229cc9db4534e46969653ec4d14f2e2939564736f6c63430008110033",
  "linkReferences": {},
  "deployedLinkReferences": {}
}