{
  "_format": "hh-sol-artifact-1",
  "contractName": "Gas",
  "sourceName": "contracts/Gas.sol",
  "abi": [
    {
      "inputs": [],
      "name": "createPacked",
      "outputs": [],
      "stateMutability": "nonpayable",
      "type": "function"
    },
    {
      "inputs": [],
      "name": "createUnpacked",
      "outputs": [],
      "stateMutability": "nonpayable",
      "type": "function"
    },
    {
      "inputs": [],
      "name": "highScore",
      "outputs": [
        {
          "internalType": "uint256",
          "name": "",
          "type": "uint256"
        }
      ],
      "stateMutability": "view",
      "type": "function"
    },
    {
      "inputs": [
        {
          "internalType": "uint256",
          "name": "actions",
          "type": "uint256"
        }
      ],
      "name": "loopActions",
      "outputs": [],
      "stateMutability": "nonpayable",
      "type": "function"
    },
    {
      "inputs": [
        {
          "internalType": "uint256",
          "name": "countValue",
          "type": "uint256"
        }
      ],
      "name": "updateNumber",
      "outputs": [],
      "stateMutability": "nonpayable",
      "type": "function"
    },
    {
      "inputs": [
        {
          "internalType": "uint256",
          "name": "countValue",
          "type": "uint256"
        }
      ],
      "name": "updateNumberOptimized",
      "outputs": [],
      "stateMutability": "nonpayable",
      "type": "function"
    }
  ],
  "bytecode": "0x608060405234801561001057600080fd5b506107bf806100206000396000f3fe608060405234801561001057600080fd5b50600436106100725760003560e01c80636da4ddb1116100505780636da4ddb1146100ba578063d1f108b914610324578063fc63cdcc1461033757600080fd5b80631db05a88146100775780631fca52781461008c5780634c6c2ff3146100a7575b600080fd5b61008a6100853660046106ef565b61063c565b005b61009560005481565b60405190815260200160405180910390f35b61008a6100b53660046106ef565b610672565b61008a600460405180610160016040528060006001600160801b03168152602001600060ff168152602001600067ffffffffffffffff168152602001600060ff16815260200160008152602001600067ffffffffffffffff16815260200160006001600160801b03168152602001600060ff168152602001600067ffffffffffffffff168152602001600060ff168152602001600063ffffffff16815250908060018154018082558091505060019003906000526020600020906004020160009091909190915060008201518160000160006101000a8154816001600160801b0302191690836001600160801b0316021790555060208201518160000160106101000a81548160ff021916908360ff16021790555060408201518160000160116101000a81548167ffffffffffffffff021916908367ffffffffffffffff16021790555060608201518160000160196101000a81548160ff021916908360ff1602179055506080820151816001015560a08201518160020160006101000a81548167ffffffffffffffff021916908367ffffffffffffffff16021790555060c08201518160020160086101000a8154816001600160801b0302191690836001600160801b0316021790555060e08201518160020160186101000a81548160ff021916908360ff1602179055506101008201518160030160006101000a81548167ffffffffffffffff021916908367ffffffffffffffff1602179055506101208201518160030160086101000a81548160ff021916908360ff1602179055506101408201518160030160096101000a81548163ffffffff021916908363ffffffff1602179055505050565b61008a6103323660046106ef565b6106a6565b6040805161016081018252600080825260208201818152928201818152606083018281526080840183815260a0850184815260c0860185815260e08701868152610100880187815261012089018881526101408a01898152600380546001810182559a8190529a517fc2575a0e9e593c00f959f8c92f12db2869c3395a3b0502d05e2516446f71f85b9a909b02998a019a909a55995196516001600160801b03978816700100000000000000000000000000000000989091168802177fc2575a0e9e593c00f959f8c92f12db2869c3395a3b0502d05e2516446f71f85c89015594517fc2575a0e9e593c00f959f8c92f12db2869c3395a3b0502d05e2516446f71f85d9097018054945193519251915195519951985167ffffffffffffffff9889167fffffffffffffffffffffffffffffffff00000000000000000000000000000000909616959095176801000000000000000094891694909402939093177fffffffff000000000000000000000000ffffffffffffffffffffffffffffffff16969091169094027fffffffff00000000ffffffffffffffffffffffffffffffffffffffffffffffff1694909417780100000000000000000000000000000000000000000000000063ffffffff90941693909302929092177fffff0000ffffffffffffffffffffffffffffffffffffffffffffffffffffffff167c010000000000000000000000000000000000000000000000000000000060ff928316027fffff00ffffffffffffffffffffffffffffffffffffffffffffffffffffffffff16177d01000000000000000000000000000000000000000000000000000000000095821695909502949094177dffffffffffffffffffffffffffffffffffffffffffffffffffffffffffff167e01000000000000000000000000000000000000000000000000000000000000938516939093027effffffffffffffffffffffffffffffffffffffffffffffffffffffffffffff16929092177f01000000000000000000000000000000000000000000000000000000000000009390921692909202179055005b60015481111561066f57806106508161071e565b60018054919350909150600061066583610735565b919050555061063c565b50565b6002545b6001548211156106a0578161068a8161071e565b925050808061069890610735565b915050610676565b60025550565b600181111561066f576000546106bd90600161074e565b6106c79082610767565b6000808282546106d7919061074e565b909155508190506106e78161071e565b9150506106a6565b60006020828403121561070157600080fd5b5035919050565b634e487b7160e01b600052601160045260246000fd5b60008161072d5761072d610708565b506000190190565b60006001820161074757610747610708565b5060010190565b8082018082111561076157610761610708565b92915050565b60008261078457634e487b7160e01b600052601260045260246000fd5b50049056fea264697066735822122021b6693b0c5c6fa11fd07a190a48b5b16b51d6d167e0e1713d54b65a51d06beb64736f6c63430008110033",
  "linkReferences": {},
  "deployedLinkReferences": {}
}