{"contracts/Gas.sol":{"Gas":{"abi":[{"inputs":[],"name":"createPacked","outputs":[],"stateMutability":"nonpayable","type":"function"},{"inputs":[],"name":"createUnpacked","outputs":[],"stateMutability":"nonpayable","type":"function"},{"inputs":[],"name":"highScore","outputs":[{"internalType":"uint256","name":"","type":"uint256"}],"stateMutability":"view","type":"function"},{"inputs":[{"internalType":"uint256","name":"actions","type":"uint256"}],"name":"loopActions","outputs":[],"stateMutability":"nonpayable","type":"function"},{"inputs":[{"internalType":"uint256","name":"countValue","type":"uint256"}],"name":"updateNumber","outputs":[],"stateMutability":"nonpayable","type":"function"},{"inputs":[{"internalType":"uint256","name":"countValue","type":"uint256"}],"name":"updateNumberOptimized","outputs":[],"stateMutability":"nonpayable","type":"function"}],"evm":{"bytecode":{"linkReferences":{},"object":"608060405234801561001057600080fd5b506107bf806100206000396000f3fe608060405234801561001057600080fd5b50600436106100725760003560e01c80636da4ddb1116100505780636da4ddb1146100ba578063d1f108b914610324578063fc63cdcc1461033757600080fd5b80631db05a88146100775780631fca52781461008c5780634c6c2ff3146100a7575b600080fd5b61008a6100853660046106ef565b61063c565b005b61009560005481565b60405190815260200160405180910390f35b61008a6100b53660046106ef565b610672565b61008a600460405180610160016040528060006001600160801b03168152602001600060ff168152602001600067ffffffffffffffff168152602001600060ff16815260200160008152602001600067ffffffffffffffff16815260200160006001600160801b03168152602001600060ff168152602001600067ffffffffffffffff168152602001600060ff168152602001600063ffffffff16815250908060018154018082558091505060019003906000526020600020906004020160009091909190915060008201518160000160006101000a8154816001600160801b0302191690836001600160801b0316021790555060208201518160000160106101000a81548160ff021916908360ff16021790555060408201518160000160116101000a81548167ffffffffffffffff021916908367ffffffffffffffff16021790555060608201518160000160196101000a81548160ff021916908360ff1602179055506080820151816001015560a08201518160020160006101000a81548167ffffffffffffffff021916908367ffffffffffffffff16021790555060c08201518160020160086101000a8154816001600160801b0302191690836001600160801b0316021790555060e08201518160020160186101000a81548160ff021916908360ff1602179055506101008201518160030160006101000a81548167ffffffffffffffff021916908367ffffffffffffffff1602179055506101208201518160030160086101000a81548160ff021916908360ff1602179055506101408201518160030160096101000a81548163ffffffff021916908363ffffffff1602179055505050565b61008a6103323660046106ef565b6106a6565b6040805161016081018252600080825260208201818152928201818152606083018281526080840183815260a0850184815260c0860185815260e08701868152610100880187815261012089018881526101408a01898152600380546001810182559a8190529a517fc2575a0e9e593c00f959f8c92f12db2869c3395a3b0502d05e2516446f71f85b9a909b02998a019a909a55995196516001600160801b03978816700100000000000000000000000000000000989091168802177fc2575a0e9e593c00f959f8c92f12db2869c3395a3b0502d05e2516446f71f85c89015594517fc2575a0e9e593c00f959f8c92f12db2869c3395a3b0502d05e2516446f71f85d9097018054945193519251915195519951985167ffffffffffffffff9889167fffffffffffffffffffffffffffffffff00000000000000000000000000000000909616959095176801000000000000000094891694909402939093177fffffffff000000000000000000000000ffffffffffffffffffffffffffffffff16969091169094027fffffffff00000000ffffffffffffffffffffffffffffffffffffffffffffffff1694909417780100000000000000000000000000000000000000000000000063ffffffff90941693909302929092177fffff0000ffffffffffffffffffffffffffffffffffffffffffffffffffffffff167c010000000000000000000000000000000000000000000000000000000060ff928316027fffff00ffffffffffffffffffffffffffffffffffffffffffffffffffffffffff16177d01000000000000000000000000000000000000000000000000000000000095821695909502949094177dffffffffffffffffffffffffffffffffffffffffffffffffffffffffffff167e01000000000000000000000000000000000000000000000000000000000000938516939093027effffffffffffffffffffffffffffffffffffffffffffffffffffffffffffff16929092177f01000000000000000000000000000000000000000000000000000000000000009390921692909202179055005b60015481111561066f57806106508161071e565b60018054919350909150600061066583610735565b919050555061063c565b50565b6002545b6001548211156106a0578161068a8161071e565b925050808061069890610735565b915050610676565b60025550565b600181111561066f576000546106bd90600161074e565b6106c79082610767565b6000808282546106d7919061074e565b909155508190506106e78161071e565b9150506106a6565b60006020828403121561070157600080fd5b5035919050565b634e487b7160e01b600052601160045260246000fd5b60008161072d5761072d610708565b506000190190565b60006001820161074757610747610708565b5060010190565b8082018082111561076157610761610708565b92915050565b60008261078457634e487b7160e01b600052601260045260246000fd5b50049056fea264697066735822122021b6693b0c5c6fa11fd07a190a48b5b16b51d6d167e0e1713d54b65a51d06beb64736f6c63430008110033","opcodes":"PUSH1 0x80 PUSH1 0x40 MSTORE CALLVALUE DUP1 ISZERO PUSH2 0x10 JUMPI PUSH1 0x0 DUP1 REVERT JUMPDEST POP PUSH2 0x7BF DUP1 PUSH2 0x20 PUSH1 0x0 CODECOPY PUSH1 0x0 RETURN INVALID PUSH1 0x80 PUSH1 0x40 MSTORE CALLVALUE DUP1 ISZERO PUSH2 0x10 JUMPI PUSH1 0x0 DUP1 REVERT JUMPDEST POP PUSH1 0x4 CALLDATASIZE LT PUSH2 0x72 JUMPI PUSH1 0x0 CALLDATALOAD PUSH1 0xE0 SHR DUP1 PUSH4 0x6DA4DDB1 GT PUSH2 0x50 JUMPI DUP1 PUSH4 0x6DA4DDB1 EQ PUSH2 0xBA JUMPI DUP1 PUSH4 0xD1F108B9 EQ PUSH2 0x324 JUMPI DUP1 PUSH4 0xFC63CDCC EQ PUSH2 0x337 JUMPI PUSH1 0x0 DUP1 REVERT JUMPDEST DUP1 PUSH4 0x1DB05A88 EQ PUSH2 0x77 JUMPI DUP1 PUSH4 0x1FCA5278 EQ PUSH2 0x8C JUMPI DUP1 PUSH4 0x4C6C2FF3 EQ PUSH2 0xA7 JUMPI JUMPDEST PUSH1 0x0 DUP1 REVERT JUMPDEST PUSH2 0x8A PUSH2 0x85 CALLDATASIZE PUSH1 0x4 PUSH2 0x6EF JUMP JUMPDEST PUSH2 0x63C JUMP JUMPDEST STOP JUMPDEST PUSH2 0x95 PUSH1 0x0 SLOAD DUP2 JUMP JUMPDEST PUSH1 0x40 MLOAD SWAP1 DUP2 MSTORE PUSH1 0x20 ADD PUSH1 0x40 MLOAD DUP1 SWAP2 SUB SWAP1 RETURN JUMPDEST PUSH2 0x8A PUSH2 0xB5 CALLDATASIZE PUSH1 0x4 PUSH2 0x6EF JUMP JUMPDEST PUSH2 0x672 JUMP JUMPDEST PUSH2 0x8A PUSH1 0x4 PUSH1 0x40 MLOAD DUP1 PUSH2 0x160 ADD PUSH1 0x40 MSTORE DUP1 PUSH1 0x0 PUSH1 0x1 PUSH1 0x1 PUSH1 0x80 SHL SUB AND DUP2 MSTORE PUSH1 0x20 ADD PUSH1 0x0 PUSH1 0xFF AND DUP2 MSTORE PUSH1 0x20 ADD PUSH1 0x0 PUSH8 0xFFFFFFFFFFFFFFFF AND DUP2 MSTORE PUSH1 0x20 ADD PUSH1 0x0 PUSH1 0xFF AND DUP2 MSTORE PUSH1 0x20 ADD PUSH1 0x0 DUP2 MSTORE PUSH1 0x20 ADD PUSH1 0x0 PUSH8 0xFFFFFFFFFFFFFFFF AND DUP2 MSTORE PUSH1 0x20 ADD PUSH1 0x0 PUSH1 0x1 PUSH1 0x1 PUSH1 0x80 SHL SUB AND DUP2 MSTORE PUSH1 0x20 ADD PUSH1 0x0 PUSH1 0xFF AND DUP2 MSTORE PUSH1 0x20 ADD PUSH1 0x0 PUSH8 0xFFFFFFFFFFFFFFFF AND DUP2 MSTORE PUSH1 0x20 ADD PUSH1 0x0 PUSH1 0xFF AND DUP2 MSTORE PUSH1 0x20 ADD PUSH1 0x0 PUSH4 0xFFFFFFFF AND DUP2 MSTORE POP SWAP1 DUP1 PUSH1 0x1 DUP2 SLOAD ADD DUP1 DUP3 SSTORE DUP1 SWAP2 POP POP PUSH1 0x1 SWAP1 SUB SWAP1 PUSH1 0x0 MSTORE PUSH1 0x20 PUSH1 0x0 KECCAK256 SWAP1 PUSH1 0x4 MUL ADD PUSH1 0x0 SWAP1 SWAP2 SWAP1 SWAP2 SWAP1 SWAP2 POP PUSH1 0x0 DUP3 ADD MLOAD DUP2 PUSH1 0x0 ADD PUSH1 0x0 PUSH2 0x100 EXP DUP2 SLOAD DUP2 PUSH1 0x1 PUSH1 0x1 PUSH1 0x80 SHL SUB MUL NOT AND SWAP1 DUP4 PUSH1 0x1 PUSH1 0x1 PUSH1 0x80 SHL SUB AND MUL OR SWAP1 SSTORE POP PUSH1 0x20 DUP3 ADD MLOAD DUP2 PUSH1 0x0 ADD PUSH1 0x10 PUSH2 0x100 EXP DUP2 SLOAD DUP2 PUSH1 0xFF MUL NOT AND SWAP1 DUP4 PUSH1 0xFF AND MUL OR SWAP1 SSTORE POP PUSH1 0x40 DUP3 ADD MLOAD DUP2 PUSH1 0x0 ADD PUSH1 0x11 PUSH2 0x100 EXP DUP2 SLOAD DUP2 PUSH8 0xFFFFFFFFFFFFFFFF MUL NOT AND SWAP1 DUP4 PUSH8 0xFFFFFFFFFFFFFFFF AND MUL OR SWAP1 SSTORE POP PUSH1 0x60 DUP3 ADD MLOAD DUP2 PUSH1 0x0 ADD PUSH1 0x19 PUSH2 0x100 EXP DUP2 SLOAD DUP2 PUSH1 0xFF MUL NOT AND SWAP1 DUP4 PUSH1 0xFF AND MUL OR SWAP1 SSTORE POP PUSH1 0x80 DUP3 ADD MLOAD DUP2 PUSH1 0x1 ADD SSTORE PUSH1 0xA0 DUP3 ADD MLOAD DUP2 PUSH1 0x2 ADD PUSH1 0x0 PUSH2 0x100 EXP DUP2 SLOAD DUP2 PUSH8 0xFFFFFFFFFFFFFFFF MUL NOT AND SWAP1 DUP4 PUSH8 0xFFFFFFFFFFFFFFFF AND MUL OR SWAP1 SSTORE POP PUSH1 0xC0 DUP3 ADD MLOAD DUP2 PUSH1 0x2 ADD PUSH1 0x8 PUSH2 0x100 EXP DUP2 SLOAD DUP2 PUSH1 0x1 PUSH1 0x1 PUSH1 0x80 SHL SUB MUL NOT AND SWAP1 DUP4 PUSH1 0x1 PUSH1 0x1 PUSH1 0x80 SHL SUB AND MUL OR SWAP1 SSTORE POP PUSH1 0xE0 DUP3 ADD MLOAD DUP2 PUSH1 0x2 ADD PUSH1 0x18 PUSH2 0x100 EXP DUP2 SLOAD DUP2 PUSH1 0xFF MUL NOT AND SWAP1 DUP4 PUSH1 0xFF AND MUL OR SWAP1 SSTORE POP PUSH2 0x100 DUP3 ADD MLOAD DUP2 PUSH1 0x3 ADD PUSH1 0x0 PUSH2 0x100 EXP DUP2 SLOAD DUP2 PUSH8 0xFFFFFFFFFFFFFFFF MUL NOT AND SWAP1 DUP4 PUSH8 0xFFFFFFFFFFFFFFFF AND MUL OR SWAP1 SSTORE POP PUSH2 0x120 DUP3 ADD MLOAD DUP2 PUSH1 0x3 ADD PUSH1 0x8 PUSH2 0x100 EXP DUP2 SLOAD DUP2 PUSH1 0xFF MUL NOT AND SWAP1 DUP4 PUSH1 0xFF AND MUL OR SWAP1 SSTORE POP PUSH2 0x140 DUP3 ADD MLOAD DUP2 PUSH1 0x3 ADD PUSH1 0x9 PUSH2 0x100 EXP DUP2 SLOAD DUP2 PUSH4 0xFFFFFFFF MUL NOT AND SWAP1 DUP4 PUSH4 0xFFFFFFFF AND MUL OR SWAP1 SSTORE POP POP POP JUMP JUMPDEST PUSH2 0x8A PUSH2 0x332 CALLDATASIZE PUSH1 0x4 PUSH2 0x6EF JUMP JUMPDEST PUSH2 0x6A6 JUMP JUMPDEST PUSH1 0x40 DUP1 MLOAD PUSH2 0x160 DUP2 ADD DUP3 MSTORE PUSH1 0x0 DUP1 DUP3 MSTORE PUSH1 0x20 DUP3 ADD DUP2 DUP2 MSTORE SWAP3 DUP3 ADD DUP2 DUP2 MSTORE PUSH1 0x60 DUP4 ADD DUP3 DUP2 MSTORE PUSH1 0x80 DUP5 ADD DUP4 DUP2 MSTORE PUSH1 0xA0 DUP6 ADD DUP5 DUP2 MSTORE PUSH1 0xC0 DUP7 ADD DUP6 DUP2 MSTORE PUSH1 0xE0 DUP8 ADD DUP7 DUP2 MSTORE PUSH2 0x100 DUP9 ADD DUP8 DUP2 MSTORE PUSH2 0x120 DUP10 ADD DUP9 DUP2 MSTORE PUSH2 0x140 DUP11 ADD DUP10 DUP2 MSTORE PUSH1 0x3 DUP1 SLOAD PUSH1 0x1 DUP2 ADD DUP3 SSTORE SWAP11 DUP2 SWAP1 MSTORE SWAP11 MLOAD PUSH32 0xC2575A0E9E593C00F959F8C92F12DB2869C3395A3B0502D05E2516446F71F85B SWAP11 SWAP1 SWAP12 MUL SWAP10 DUP11 ADD SWAP11 SWAP1 SWAP11 SSTORE SWAP10 MLOAD SWAP7 MLOAD PUSH1 0x1 PUSH1 0x1 PUSH1 0x80 SHL SUB SWAP8 DUP9 AND PUSH17 0x100000000000000000000000000000000 SWAP9 SWAP1 SWAP2 AND DUP9 MUL OR PUSH32 0xC2575A0E9E593C00F959F8C92F12DB2869C3395A3B0502D05E2516446F71F85C DUP10 ADD SSTORE SWAP5 MLOAD PUSH32 0xC2575A0E9E593C00F959F8C92F12DB2869C3395A3B0502D05E2516446F71F85D SWAP1 SWAP8 ADD DUP1 SLOAD SWAP5 MLOAD SWAP4 MLOAD SWAP3 MLOAD SWAP2 MLOAD SWAP6 MLOAD SWAP10 MLOAD SWAP9 MLOAD PUSH8 0xFFFFFFFFFFFFFFFF SWAP9 DUP10 AND PUSH32 0xFFFFFFFFFFFFFFFFFFFFFFFFFFFFFFFF00000000000000000000000000000000 SWAP1 SWAP7 AND SWAP6 SWAP1 SWAP6 OR PUSH9 0x10000000000000000 SWAP5 DUP10 AND SWAP5 SWAP1 SWAP5 MUL SWAP4 SWAP1 SWAP4 OR PUSH32 0xFFFFFFFF000000000000000000000000FFFFFFFFFFFFFFFFFFFFFFFFFFFFFFFF AND SWAP7 SWAP1 SWAP2 AND SWAP1 SWAP5 MUL PUSH32 0xFFFFFFFF00000000FFFFFFFFFFFFFFFFFFFFFFFFFFFFFFFFFFFFFFFFFFFFFFFF AND SWAP5 SWAP1 SWAP5 OR PUSH25 0x1000000000000000000000000000000000000000000000000 PUSH4 0xFFFFFFFF SWAP1 SWAP5 AND SWAP4 SWAP1 SWAP4 MUL SWAP3 SWAP1 SWAP3 OR PUSH32 0xFFFF0000FFFFFFFFFFFFFFFFFFFFFFFFFFFFFFFFFFFFFFFFFFFFFFFFFFFFFFFF AND PUSH29 0x100000000000000000000000000000000000000000000000000000000 PUSH1 0xFF SWAP3 DUP4 AND MUL PUSH32 0xFFFF00FFFFFFFFFFFFFFFFFFFFFFFFFFFFFFFFFFFFFFFFFFFFFFFFFFFFFFFFFF AND OR PUSH30 0x10000000000000000000000000000000000000000000000000000000000 SWAP6 DUP3 AND SWAP6 SWAP1 SWAP6 MUL SWAP5 SWAP1 SWAP5 OR PUSH30 0xFFFFFFFFFFFFFFFFFFFFFFFFFFFFFFFFFFFFFFFFFFFFFFFFFFFFFFFFFFFF AND PUSH31 0x1000000000000000000000000000000000000000000000000000000000000 SWAP4 DUP6 AND SWAP4 SWAP1 SWAP4 MUL PUSH31 0xFFFFFFFFFFFFFFFFFFFFFFFFFFFFFFFFFFFFFFFFFFFFFFFFFFFFFFFFFFFFFF AND SWAP3 SWAP1 SWAP3 OR PUSH32 0x100000000000000000000000000000000000000000000000000000000000000 SWAP4 SWAP1 SWAP3 AND SWAP3 SWAP1 SWAP3 MUL OR SWAP1 SSTORE STOP JUMPDEST PUSH1 0x1 SLOAD DUP2 GT ISZERO PUSH2 0x66F JUMPI DUP1 PUSH2 0x650 DUP2 PUSH2 0x71E JUMP JUMPDEST PUSH1 0x1 DUP1 SLOAD SWAP2 SWAP4 POP SWAP1 SWAP2 POP PUSH1 0x0 PUSH2 0x665 DUP4 PUSH2 0x735 JUMP JUMPDEST SWAP2 SWAP1 POP SSTORE POP PUSH2 0x63C JUMP JUMPDEST POP JUMP JUMPDEST PUSH1 0x2 SLOAD JUMPDEST PUSH1 0x1 SLOAD DUP3 GT ISZERO PUSH2 0x6A0 JUMPI DUP2 PUSH2 0x68A DUP2 PUSH2 0x71E JUMP JUMPDEST SWAP3 POP POP DUP1 DUP1 PUSH2 0x698 SWAP1 PUSH2 0x735 JUMP JUMPDEST SWAP2 POP POP PUSH2 0x676 JUMP JUMPDEST PUSH1 0x2 SSTORE POP JUMP JUMPDEST PUSH1 0x1 DUP2 GT ISZERO PUSH2 0x66F JUMPI PUSH1 0x0 SLOAD PUSH2 0x6BD SWAP1 PUSH1 0x1 PUSH2 0x74E JUMP JUMPDEST PUSH2 0x6C7 SWAP1 DUP3 PUSH2 0x767 JUMP JUMPDEST PUSH1 0x0 DUP1 DUP3 DUP3 SLOAD PUSH2 0x6D7 SWAP2 SWAP1 PUSH2 0x74E JUMP JUMPDEST SWAP1 SWAP2 SSTORE POP DUP2 SWAP1 POP PUSH2 0x6E7 DUP2 PUSH2 0x71E JUMP JUMPDEST SWAP2 POP POP PUSH2 0x6A6 JUMP JUMPDEST PUSH1 0x0 PUSH1 0x20 DUP3 DUP5 SUB SLT ISZERO PUSH2 0x701 JUMPI PUSH1 0x0 DUP1 REVERT JUMPDEST POP CALLDATALOAD SWAP2 SWAP1 POP JUMP JUMPDEST PUSH4 0x4E487B71 PUSH1 0xE0 SHL PUSH1 0x0 MSTORE PUSH1 0x11 PUSH1 0x4 MSTORE PUSH1 0x24 PUSH1 0x0 REVERT JUMPDEST PUSH1 0x0 DUP2 PUSH2 0x72D JUMPI PUSH2 0x72D PUSH2 0x708 JUMP JUMPDEST POP PUSH1 0x0 NOT ADD SWAP1 JUMP JUMPDEST PUSH1 0x0 PUSH1 0x1 DUP3 ADD PUSH2 0x747 JUMPI PUSH2 0x747 PUSH2 0x708 JUMP JUMPDEST POP PUSH1 0x1 ADD SWAP1 JUMP JUMPDEST DUP1 DUP3 ADD DUP1 DUP3 GT ISZERO PUSH2 0x761 JUMPI PUSH2 0x761 PUSH2 0x708 JUMP JUMPDEST SWAP3 SWAP2 POP POP JUMP JUMPDEST PUSH1 0x0 DUP3 PUSH2 0x784 JUMPI PUSH4 0x4E487B71 PUSH1 0xE0 SHL PUSH1 0x0 MSTORE PUSH1 0x12 PUSH1 0x4 MSTORE PUSH1 0x24 PUSH1 0x0 REVERT JUMPDEST POP DIV SWAP1 JUMP INVALID LOG2 PUSH5 0x6970667358 0x22 SLT KECCAK256 0x21 0xB6 PUSH10 0x3B0C5C6FA11FD07A190A BASEFEE 0xB5 0xB1 PUSH12 0x51D6D167E0E1713D54B65A51 0xD0 PUSH12 0xEB64736F6C63430008110033 "},"methodIdentifiers":{"createPacked()":"fc63cdcc","createUnpacked()":"6da4ddb1","highScore()":"1fca5278","loopActions(uint256)":"d1f108b9","updateNumber(uint256)":"1db05a88","updateNumberOptimized(uint256)":"4c6c2ff3"}}}}}