{"contracts/NotQuiteRandom.sol":{"NotQuiteRandom":{"abi":[{"inputs":[],"name":"getRandomNumber","outputs":[{"internalType":"uint256","name":"notQuiteRandomNumber","type":"uint256"}],"stateMutability":"view","type":"function"},{"inputs":[],"name":"tossCoin","outputs":[{"internalType":"bool","name":"heads","type":"bool"}],"stateMutability":"view","type":"function"}],"evm":{"bytecode":{"linkReferences":{},"object":"608060405234801561001057600080fd5b5061010b806100206000396000f3fe6080604052348015600f57600080fd5b506004361060325760003560e01c8063b41e8cad146037578063dbdff2c1146052575b600080fd5b603d6065565b60405190151581526020015b60405180910390f35b6058607d565b6040519081526020016049565b60006002606f607d565b60779190608e565b15919050565b6000608860014360af565b40919050565b60008260aa57634e487b7160e01b600052601260045260246000fd5b500690565b8181038181111560cf57634e487b7160e01b600052601160045260246000fd5b9291505056fea264697066735822122034f68805b6ad7d756177d5c3af380c509541d6b44d7bbcc8bd4c77d5ca03ac3e64736f6c63430008110033","opcodes":"PUSH1 0x80 PUSH1 0x40 MSTORE CALLVALUE DUP1 ISZERO PUSH2 0x10 JUMPI PUSH1 0x0 DUP1 REVERT JUMPDEST POP PUSH2 0x10B DUP1 PUSH2 0x20 PUSH1 0x0 CODECOPY PUSH1 0x0 RETURN INVALID PUSH1 0x80 PUSH1 0x40 MSTORE CALLVALUE DUP1 ISZERO PUSH1 0xF JUMPI PUSH1 0x0 DUP1 REVERT JUMPDEST POP PUSH1 0x4 CALLDATASIZE LT PUSH1 0x32 JUMPI PUSH1 0x0 CALLDATALOAD PUSH1 0xE0 SHR DUP1 PUSH4 0xB41E8CAD EQ PUSH1 0x37 JUMPI DUP1 PUSH4 0xDBDFF2C1 EQ PUSH1 0x52 JUMPI JUMPDEST PUSH1 0x0 DUP1 REVERT JUMPDEST PUSH1 0x3D PUSH1 0x65 JUMP JUMPDEST PUSH1 0x40 MLOAD SWAP1 ISZERO ISZERO DUP2 MSTORE PUSH1 0x20 ADD JUMPDEST PUSH1 0x40 MLOAD DUP1 SWAP2 SUB SWAP1 RETURN JUMPDEST PUSH1 0x58 PUSH1 0x7D JUMP JUMPDEST PUSH1 0x40 MLOAD SWAP1 DUP2 MSTORE PUSH1 0x20 ADD PUSH1 0x49 JUMP JUMPDEST PUSH1 0x0 PUSH1 0x2 PUSH1 0x6F PUSH1 0x7D JUMP JUMPDEST PUSH1 0x77 SWAP2 SWAP1 PUSH1 0x8E JUMP JUMPDEST ISZERO SWAP2 SWAP1 POP JUMP JUMPDEST PUSH1 0x0 PUSH1 0x88 PUSH1 0x1 NUMBER PUSH1 0xAF JUMP JUMPDEST BLOCKHASH SWAP2 SWAP1 POP JUMP JUMPDEST PUSH1 0x0 DUP3 PUSH1 0xAA JUMPI PUSH4 0x4E487B71 PUSH1 0xE0 SHL PUSH1 0x0 MSTORE PUSH1 0x12 PUSH1 0x4 MSTORE PUSH1 0x24 PUSH1 0x0 REVERT JUMPDEST POP MOD SWAP1 JUMP JUMPDEST DUP2 DUP2 SUB DUP2 DUP2 GT ISZERO PUSH1 0xCF JUMPI PUSH4 0x4E487B71 PUSH1 0xE0 SHL PUSH1 0x0 MSTORE PUSH1 0x11 PUSH1 0x4 MSTORE PUSH1 0x24 PUSH1 0x0 REVERT JUMPDEST SWAP3 SWAP2 POP POP JUMP INVALID LOG2 PUSH5 0x6970667358 0x22 SLT KECCAK256 CALLVALUE 0xF6 DUP9 SDIV 0xB6 0xAD PUSH30 0x756177D5C3AF380C509541D6B44D7BBCC8BD4C77D5CA03AC3E64736F6C63 NUMBER STOP ADDMOD GT STOP CALLER "},"methodIdentifiers":{"getRandomNumber()":"dbdff2c1","tossCoin()":"b41e8cad"}}}}}