{"contracts/Random.sol":{"Random":{"abi":[{"inputs":[],"name":"getRandomNumber","outputs":[{"internalType":"uint256","name":"randomNumber","type":"uint256"}],"stateMutability":"view","type":"function"},{"inputs":[],"name":"tossCoin","outputs":[{"internalType":"bool","name":"heads","type":"bool"}],"stateMutability":"view","type":"function"}],"evm":{"bytecode":{"linkReferences":{},"object":"6080604052348015600f57600080fd5b50608f8061001e6000396000f3fe6080604052348015600f57600080fd5b506004361060325760003560e01c8063b41e8cad146037578063dbdff2c114604b575b600080fd5b604051600081526020015b60405180910390f35b60405160008152602001604256fea2646970667358221220e8757ada642bfabddba1925929f5c1d64cd625020ca122fec8aa4d40231344f564736f6c63430008110033","opcodes":"PUSH1 0x80 PUSH1 0x40 MSTORE CALLVALUE DUP1 ISZERO PUSH1 0xF JUMPI PUSH1 0x0 DUP1 REVERT JUMPDEST POP PUSH1 0x8F DUP1 PUSH2 0x1E PUSH1 0x0 CODECOPY PUSH1 0x0 RETURN INVALID PUSH1 0x80 PUSH1 0x40 MSTORE CALLVALUE DUP1 ISZERO PUSH1 0xF JUMPI PUSH1 0x0 DUP1 REVERT JUMPDEST POP PUSH1 0x4 CALLDATASIZE LT PUSH1 0x32 JUMPI PUSH1 0x0 CALLDATALOAD PUSH1 0xE0 SHR DUP1 PUSH4 0xB41E8CAD EQ PUSH1 0x37 JUMPI DUP1 PUSH4 0xDBDFF2C1 EQ PUSH1 0x4B JUMPI JUMPDEST PUSH1 0x0 DUP1 REVERT JUMPDEST PUSH1 0x40 MLOAD PUSH1 0x0 DUP2 MSTORE PUSH1 0x20 ADD JUMPDEST PUSH1 0x40 MLOAD DUP1 SWAP2 SUB SWAP1 RETURN JUMPDEST PUSH1 0x40 MLOAD PUSH1 0x0 DUP2 MSTORE PUSH1 0x20 ADD PUSH1 0x42 JUMP INVALID LOG2 PUSH5 0x6970667358 0x22 SLT KECCAK256 0xE8 PUSH22 0x7ADA642BFABDDBA1925929F5C1D64CD625020CA122FE 0xC8 0xAA 0x4D BLOCKHASH 0x23 SGT DIFFICULTY CREATE2 PUSH5 0x736F6C6343 STOP ADDMOD GT STOP CALLER "},"methodIdentifiers":{"getRandomNumber()":"dbdff2c1","tossCoin()":"b41e8cad"}}}}}