{"contracts/PseudoRandom.sol":{"PseudoRandom":{"abi":[{"inputs":[{"internalType":"string","name":"seed","type":"string"}],"name":"getCombinedRandomNumber","outputs":[{"internalType":"uint256","name":"pseudoRandomNumber","type":"uint256"}],"stateMutability":"view","type":"function"},{"inputs":[{"internalType":"string","name":"seed","type":"string"}],"name":"getRandomNumber","outputs":[{"internalType":"uint256","name":"pseudoRandomNumber","type":"uint256"}],"stateMutability":"view","type":"function"},{"inputs":[{"internalType":"uint8","name":"_v","type":"uint8"},{"internalType":"bytes32","name":"_r","type":"bytes32"},{"internalType":"bytes32","name":"_s","type":"bytes32"}],"name":"setSignature","outputs":[],"stateMutability":"nonpayable","type":"function"},{"inputs":[{"internalType":"string","name":"message","type":"string"},{"internalType":"uint8","name":"v","type":"uint8"},{"internalType":"bytes32","name":"r","type":"bytes32"},{"internalType":"bytes32","name":"s","type":"bytes32"}],"name":"verifyString","outputs":[{"internalType":"address","name":"signer","type":"address"}],"stateMutability":"pure","type":"function"}],"evm":{"bytecode":{"linkReferences":{},"object":"608060405234801561001057600080fd5b506106e0806100206000396000f3fe608060405234801561001057600080fd5b506004361061004c5760003560e01c80637457ec8b1461005157806382c389d614610077578063d2c3fbb7146100bb578063d305843c146100e6575b600080fd5b61006461005f3660046103e1565b6100f9565b6040519081526020015b60405180910390f35b6100b9610085366004610468565b6040805160608101825260ff9094168085526020850184905293018190526000805460ff1916909317909255600155600255565b005b6100ce6100c93660046104b1565b6101bb565b6040516001600160a01b03909116815260200161006e565b6100646100f43660046103e1565b610355565b60008061014884848080601f01602080910402602001604051908101604052809392919081815260200183838082843760009201829052505460015460025460ff9092169450925090506101bb565b9050336001600160a01b0382161461017b5760405162461bcd60e51b815260040161017290610581565b60405180910390fd5b83836101886001436105bd565b4060405160200161019b939291906105d6565b60408051601f198184030181529190528051602090910120949350505050565b6040805180820190915260208082527f19457468657265756d205369676e6564204d6573736167653a0a303030303030908201528451600091906039820190620f423f81111561020a57600080fd5b6000620186a05b801561029c57600061022382856105e8565b905080600003610248578260000361024857610240600a836105e8565b915050610211565b826102528161060a565b935061026090508282610623565b61026a90856105bd565b9350610277600a836105e8565b915061028460308261063a565b9050846102908161060a565b95505080855350610211565b816000036102ad57601b91506102bb565b6102b8601a8361063a565b91505b8185526000858b6040516020016102d392919061067d565b60408051601f1981840301815282825280516020918201206000845290830180835281905260ff8d1691830191909152606082018b9052608082018a9052915060019060a0016020604051602081039080840390855afa15801561033b573d6000803e3d6000fd5b5050604051601f1901519c9b505050505050505050505050565b6000806103a484848080601f01602080910402602001604051908101604052809392919081815260200183838082843760009201829052505460015460025460ff9092169450925090506101bb565b9050336001600160a01b038216146103ce5760405162461bcd60e51b815260040161017290610581565b838360405160200161019b92919061069a565b600080602083850312156103f457600080fd5b82356001600160401b038082111561040b57600080fd5b818501915085601f83011261041f57600080fd5b81358181111561042e57600080fd5b86602082850101111561044057600080fd5b60209290920196919550909350505050565b803560ff8116811461046357600080fd5b919050565b60008060006060848603121561047d57600080fd5b61048684610452565b95602085013595506040909401359392505050565b634e487b7160e01b600052604160045260246000fd5b600080600080608085870312156104c757600080fd5b84356001600160401b03808211156104de57600080fd5b818701915087601f8301126104f257600080fd5b8135818111156105045761050461049b565b604051601f8201601f19908116603f0116810190838211818310171561052c5761052c61049b565b816040528281528a602084870101111561054557600080fd5b82602086016020830137600060208483010152809850505050505061056c60208601610452565b93969395505050506040820135916060013590565b6020808252600c908201526b125b9d985b1a59081cd9595960a21b604082015260600190565b634e487b7160e01b600052601160045260246000fd5b818103818111156105d0576105d06105a7565b92915050565b82848237909101908152602001919050565b60008261060557634e487b7160e01b600052601260045260246000fd5b500490565b60006001820161061c5761061c6105a7565b5060010190565b80820281158282048414176105d0576105d06105a7565b808201808211156105d0576105d06105a7565b6000815160005b8181101561066e5760208185018101518683015201610654565b50600093019283525090919050565b600061069261068c838661064d565b8461064d565b949350505050565b818382376000910190815291905056fea26469706673582212208c0f734fa5a45084c5a6aa52de4b221aeb7906ef5f022127410c2c7e68f72fb564736f6c63430008110033","opcodes":"PUSH1 0x80 PUSH1 0x40 MSTORE CALLVALUE DUP1 ISZERO PUSH2 0x10 JUMPI PUSH1 0x0 DUP1 REVERT JUMPDEST POP PUSH2 0x6E0 DUP1 PUSH2 0x20 PUSH1 0x0 CODECOPY PUSH1 0x0 RETURN INVALID PUSH1 0x80 PUSH1 0x40 MSTORE CALLVALUE DUP1 ISZERO PUSH2 0x10 JUMPI PUSH1 0x0 DUP1 REVERT JUMPDEST POP PUSH1 0x4 CALLDATASIZE LT PUSH2 0x4C JUMPI PUSH1 0x0 CALLDATALOAD PUSH1 0xE0 SHR DUP1 PUSH4 0x7457EC8B EQ PUSH2 0x51 JUMPI DUP1 PUSH4 0x82C389D6 EQ PUSH2 0x77 JUMPI DUP1 PUSH4 0xD2C3FBB7 EQ PUSH2 0xBB JUMPI DUP1 PUSH4 0xD305843C EQ PUSH2 0xE6 JUMPI JUMPDEST PUSH1 0x0 DUP1 REVERT JUMPDEST PUSH2 0x64 PUSH2 0x5F CALLDATASIZE PUSH1 0x4 PUSH2 0x3E1 JUMP JUMPDEST PUSH2 0xF9 JUMP JUMPDEST PUSH1 0x40 MLOAD SWAP1 DUP2 MSTORE PUSH1 0x20 ADD JUMPDEST PUSH1 0x40 MLOAD DUP1 SWAP2 SUB SWAP1 RETURN JUMPDEST PUSH2 0xB9 PUSH2 0x85 CALLDATASIZE PUSH1 0x4 PUSH2 0x468 JUMP JUMPDEST PUSH1 0x40 DUP1 MLOAD PUSH1 0x60 DUP2 ADD DUP3 MSTORE PUSH1 0xFF SWAP1 SWAP5 AND DUP1 DUP6 MSTORE PUSH1 0x20 DUP6 ADD DUP5 SWAP1 MSTORE SWAP4 ADD DUP2 SWAP1 MSTORE PUSH1 0x0 DUP1 SLOAD PUSH1 0xFF NOT AND SWAP1 SWAP4 OR SWAP1 SWAP3 SSTORE PUSH1 0x1 SSTORE PUSH1 0x2 SSTORE JUMP JUMPDEST STOP JUMPDEST PUSH2 0xCE PUSH2 0xC9 CALLDATASIZE PUSH1 0x4 PUSH2 0x4B1 JUMP JUMPDEST PUSH2 0x1BB JUMP JUMPDEST PUSH1 0x40 MLOAD PUSH1 0x1 PUSH1 0x1 PUSH1 0xA0 SHL SUB SWAP1 SWAP2 AND DUP2 MSTORE PUSH1 0x20 ADD PUSH2 0x6E JUMP JUMPDEST PUSH2 0x64 PUSH2 0xF4 CALLDATASIZE PUSH1 0x4 PUSH2 0x3E1 JUMP JUMPDEST PUSH2 0x355 JUMP JUMPDEST PUSH1 0x0 DUP1 PUSH2 0x148 DUP5 DUP5 DUP1 DUP1 PUSH1 0x1F ADD PUSH1 0x20 DUP1 SWAP2 DIV MUL PUSH1 0x20 ADD PUSH1 0x40 MLOAD SWAP1 DUP2 ADD PUSH1 0x40 MSTORE DUP1 SWAP4 SWAP3 SWAP2 SWAP1 DUP2 DUP2 MSTORE PUSH1 0x20 ADD DUP4 DUP4 DUP1 DUP3 DUP5 CALLDATACOPY PUSH1 0x0 SWAP3 ADD DUP3 SWAP1 MSTORE POP SLOAD PUSH1 0x1 SLOAD PUSH1 0x2 SLOAD PUSH1 0xFF SWAP1 SWAP3 AND SWAP5 POP SWAP3 POP SWAP1 POP PUSH2 0x1BB JUMP JUMPDEST SWAP1 POP CALLER PUSH1 0x1 PUSH1 0x1 PUSH1 0xA0 SHL SUB DUP3 AND EQ PUSH2 0x17B JUMPI PUSH1 0x40 MLOAD PUSH3 0x461BCD PUSH1 0xE5 SHL DUP2 MSTORE PUSH1 0x4 ADD PUSH2 0x172 SWAP1 PUSH2 0x581 JUMP JUMPDEST PUSH1 0x40 MLOAD DUP1 SWAP2 SUB SWAP1 REVERT JUMPDEST DUP4 DUP4 PUSH2 0x188 PUSH1 0x1 NUMBER PUSH2 0x5BD JUMP JUMPDEST BLOCKHASH PUSH1 0x40 MLOAD PUSH1 0x20 ADD PUSH2 0x19B SWAP4 SWAP3 SWAP2 SWAP1 PUSH2 0x5D6 JUMP JUMPDEST PUSH1 0x40 DUP1 MLOAD PUSH1 0x1F NOT DUP2 DUP5 SUB ADD DUP2 MSTORE SWAP2 SWAP1 MSTORE DUP1 MLOAD PUSH1 0x20 SWAP1 SWAP2 ADD KECCAK256 SWAP5 SWAP4 POP POP POP POP JUMP JUMPDEST PUSH1 0x40 DUP1 MLOAD DUP1 DUP3 ADD SWAP1 SWAP2 MSTORE PUSH1 0x20 DUP1 DUP3 MSTORE PUSH32 0x19457468657265756D205369676E6564204D6573736167653A0A303030303030 SWAP1 DUP3 ADD MSTORE DUP5 MLOAD PUSH1 0x0 SWAP2 SWAP1 PUSH1 0x39 DUP3 ADD SWAP1 PUSH3 0xF423F DUP2 GT ISZERO PUSH2 0x20A JUMPI PUSH1 0x0 DUP1 REVERT JUMPDEST PUSH1 0x0 PUSH3 0x186A0 JUMPDEST DUP1 ISZERO PUSH2 0x29C JUMPI PUSH1 0x0 PUSH2 0x223 DUP3 DUP6 PUSH2 0x5E8 JUMP JUMPDEST SWAP1 POP DUP1 PUSH1 0x0 SUB PUSH2 0x248 JUMPI DUP3 PUSH1 0x0 SUB PUSH2 0x248 JUMPI PUSH2 0x240 PUSH1 0xA DUP4 PUSH2 0x5E8 JUMP JUMPDEST SWAP2 POP POP PUSH2 0x211 JUMP JUMPDEST DUP3 PUSH2 0x252 DUP2 PUSH2 0x60A JUMP JUMPDEST SWAP4 POP PUSH2 0x260 SWAP1 POP DUP3 DUP3 PUSH2 0x623 JUMP JUMPDEST PUSH2 0x26A SWAP1 DUP6 PUSH2 0x5BD JUMP JUMPDEST SWAP4 POP PUSH2 0x277 PUSH1 0xA DUP4 PUSH2 0x5E8 JUMP JUMPDEST SWAP2 POP PUSH2 0x284 PUSH1 0x30 DUP3 PUSH2 0x63A JUMP JUMPDEST SWAP1 POP DUP5 PUSH2 0x290 DUP2 PUSH2 0x60A JUMP JUMPDEST SWAP6 POP POP DUP1 DUP6 MSTORE8 POP PUSH2 0x211 JUMP JUMPDEST DUP2 PUSH1 0x0 SUB PUSH2 0x2AD JUMPI PUSH1 0x1B SWAP2 POP PUSH2 0x2BB JUMP JUMPDEST PUSH2 0x2B8 PUSH1 0x1A DUP4 PUSH2 0x63A JUMP JUMPDEST SWAP2 POP JUMPDEST DUP2 DUP6 MSTORE PUSH1 0x0 DUP6 DUP12 PUSH1 0x40 MLOAD PUSH1 0x20 ADD PUSH2 0x2D3 SWAP3 SWAP2 SWAP1 PUSH2 0x67D JUMP JUMPDEST PUSH1 0x40 DUP1 MLOAD PUSH1 0x1F NOT DUP2 DUP5 SUB ADD DUP2 MSTORE DUP3 DUP3 MSTORE DUP1 MLOAD PUSH1 0x20 SWAP2 DUP3 ADD KECCAK256 PUSH1 0x0 DUP5 MSTORE SWAP1 DUP4 ADD DUP1 DUP4 MSTORE DUP2 SWAP1 MSTORE PUSH1 0xFF DUP14 AND SWAP2 DUP4 ADD SWAP2 SWAP1 SWAP2 MSTORE PUSH1 0x60 DUP3 ADD DUP12 SWAP1 MSTORE PUSH1 0x80 DUP3 ADD DUP11 SWAP1 MSTORE SWAP2 POP PUSH1 0x1 SWAP1 PUSH1 0xA0 ADD PUSH1 0x20 PUSH1 0x40 MLOAD PUSH1 0x20 DUP2 SUB SWAP1 DUP1 DUP5 SUB SWAP1 DUP6 GAS STATICCALL ISZERO DUP1 ISZERO PUSH2 0x33B JUMPI RETURNDATASIZE PUSH1 0x0 DUP1 RETURNDATACOPY RETURNDATASIZE PUSH1 0x0 REVERT JUMPDEST POP POP PUSH1 0x40 MLOAD PUSH1 0x1F NOT ADD MLOAD SWAP13 SWAP12 POP POP POP POP POP POP POP POP POP POP POP POP JUMP JUMPDEST PUSH1 0x0 DUP1 PUSH2 0x3A4 DUP5 DUP5 DUP1 DUP1 PUSH1 0x1F ADD PUSH1 0x20 DUP1 SWAP2 DIV MUL PUSH1 0x20 ADD PUSH1 0x40 MLOAD SWAP1 DUP2 ADD PUSH1 0x40 MSTORE DUP1 SWAP4 SWAP3 SWAP2 SWAP1 DUP2 DUP2 MSTORE PUSH1 0x20 ADD DUP4 DUP4 DUP1 DUP3 DUP5 CALLDATACOPY PUSH1 0x0 SWAP3 ADD DUP3 SWAP1 MSTORE POP SLOAD PUSH1 0x1 SLOAD PUSH1 0x2 SLOAD PUSH1 0xFF SWAP1 SWAP3 AND SWAP5 POP SWAP3 POP SWAP1 POP PUSH2 0x1BB JUMP JUMPDEST SWAP1 POP CALLER PUSH1 0x1 PUSH1 0x1 PUSH1 0xA0 SHL SUB DUP3 AND EQ PUSH2 0x3CE JUMPI PUSH1 0x40 MLOAD PUSH3 0x461BCD PUSH1 0xE5 SHL DUP2 MSTORE PUSH1 0x4 ADD PUSH2 0x172 SWAP1 PUSH2 0x581 JUMP JUMPDEST DUP4 DUP4 PUSH1 0x40 MLOAD PUSH1 0x20 ADD PUSH2 0x19B SWAP3 SWAP2 SWAP1 PUSH2 0x69A JUMP JUMPDEST PUSH1 0x0 DUP1 PUSH1 0x20 DUP4 DUP6 SUB SLT ISZERO PUSH2 0x3F4 JUMPI PUSH1 0x0 DUP1 REVERT JUMPDEST DUP3 CALLDATALOAD PUSH1 0x1 PUSH1 0x1 PUSH1 0x40 SHL SUB DUP1 DUP3 GT ISZERO PUSH2 0x40B JUMPI PUSH1 0x0 DUP1 REVERT JUMPDEST DUP2 DUP6 ADD SWAP2 POP DUP6 PUSH1 0x1F DUP4 ADD SLT PUSH2 0x41F JUMPI PUSH1 0x0 DUP1 REVERT JUMPDEST DUP2 CALLDATALOAD DUP2 DUP2 GT ISZERO PUSH2 0x42E JUMPI PUSH1 0x0 DUP1 REVERT JUMPDEST DUP7 PUSH1 0x20 DUP3 DUP6 ADD ADD GT ISZERO PUSH2 0x440 JUMPI PUSH1 0x0 DUP1 REVERT JUMPDEST PUSH1 0x20 SWAP3 SWAP1 SWAP3 ADD SWAP7 SWAP2 SWAP6 POP SWAP1 SWAP4 POP POP POP POP JUMP JUMPDEST DUP1 CALLDATALOAD PUSH1 0xFF DUP2 AND DUP2 EQ PUSH2 0x463 JUMPI PUSH1 0x0 DUP1 REVERT JUMPDEST SWAP2 SWAP1 POP JUMP JUMPDEST PUSH1 0x0 DUP1 PUSH1 0x0 PUSH1 0x60 DUP5 DUP7 SUB SLT ISZERO PUSH2 0x47D JUMPI PUSH1 0x0 DUP1 REVERT JUMPDEST PUSH2 0x486 DUP5 PUSH2 0x452 JUMP JUMPDEST SWAP6 PUSH1 0x20 DUP6 ADD CALLDATALOAD SWAP6 POP PUSH1 0x40 SWAP1 SWAP5 ADD CALLDATALOAD SWAP4 SWAP3 POP POP POP JUMP JUMPDEST PUSH4 0x4E487B71 PUSH1 0xE0 SHL PUSH1 0x0 MSTORE PUSH1 0x41 PUSH1 0x4 MSTORE PUSH1 0x24 PUSH1 0x0 REVERT JUMPDEST PUSH1 0x0 DUP1 PUSH1 0x0 DUP1 PUSH1 0x80 DUP6 DUP8 SUB SLT ISZERO PUSH2 0x4C7 JUMPI PUSH1 0x0 DUP1 REVERT JUMPDEST DUP5 CALLDATALOAD PUSH1 0x1 PUSH1 0x1 PUSH1 0x40 SHL SUB DUP1 DUP3 GT ISZERO PUSH2 0x4DE JUMPI PUSH1 0x0 DUP1 REVERT JUMPDEST DUP2 DUP8 ADD SWAP2 POP DUP8 PUSH1 0x1F DUP4 ADD SLT PUSH2 0x4F2 JUMPI PUSH1 0x0 DUP1 REVERT JUMPDEST DUP2 CALLDATALOAD DUP2 DUP2 GT ISZERO PUSH2 0x504 JUMPI PUSH2 0x504 PUSH2 0x49B JUMP JUMPDEST PUSH1 0x40 MLOAD PUSH1 0x1F DUP3 ADD PUSH1 0x1F NOT SWAP1 DUP2 AND PUSH1 0x3F ADD AND DUP2 ADD SWAP1 DUP4 DUP3 GT DUP2 DUP4 LT OR ISZERO PUSH2 0x52C JUMPI PUSH2 0x52C PUSH2 0x49B JUMP JUMPDEST DUP2 PUSH1 0x40 MSTORE DUP3 DUP2 MSTORE DUP11 PUSH1 0x20 DUP5 DUP8 ADD ADD GT ISZERO PUSH2 0x545 JUMPI PUSH1 0x0 DUP1 REVERT JUMPDEST DUP3 PUSH1 0x20 DUP7 ADD PUSH1 0x20 DUP4 ADD CALLDATACOPY PUSH1 0x0 PUSH1 0x20 DUP5 DUP4 ADD ADD MSTORE DUP1 SWAP9 POP POP POP POP POP POP PUSH2 0x56C PUSH1 0x20 DUP7 ADD PUSH2 0x452 JUMP JUMPDEST SWAP4 SWAP7 SWAP4 SWAP6 POP POP POP POP PUSH1 0x40 DUP3 ADD CALLDATALOAD SWAP2 PUSH1 0x60 ADD CALLDATALOAD SWAP1 JUMP JUMPDEST PUSH1 0x20 DUP1 DUP3 MSTORE PUSH1 0xC SWAP1 DUP3 ADD MSTORE PUSH12 0x125B9D985B1A59081CD95959 PUSH1 0xA2 SHL PUSH1 0x40 DUP3 ADD MSTORE PUSH1 0x60 ADD SWAP1 JUMP JUMPDEST PUSH4 0x4E487B71 PUSH1 0xE0 SHL PUSH1 0x0 MSTORE PUSH1 0x11 PUSH1 0x4 MSTORE PUSH1 0x24 PUSH1 0x0 REVERT JUMPDEST DUP2 DUP2 SUB DUP2 DUP2 GT ISZERO PUSH2 0x5D0 JUMPI PUSH2 0x5D0 PUSH2 0x5A7 JUMP JUMPDEST SWAP3 SWAP2 POP POP JUMP JUMPDEST DUP3 DUP5 DUP3 CALLDATACOPY SWAP1 SWAP2 ADD SWAP1 DUP2 MSTORE PUSH1 0x20 ADD SWAP2 SWAP1 POP JUMP JUMPDEST PUSH1 0x0 DUP3 PUSH2 0x605 JUMPI PUSH4 0x4E487B71 PUSH1 0xE0 SHL PUSH1 0x0 MSTORE PUSH1 0x12 PUSH1 0x4 MSTORE PUSH1 0x24 PUSH1 0x0 REVERT JUMPDEST POP DIV SWAP1 JUMP JUMPDEST PUSH1 0x0 PUSH1 0x1 DUP3 ADD PUSH2 0x61C JUMPI PUSH2 0x61C PUSH2 0x5A7 JUMP JUMPDEST POP PUSH1 0x1 ADD SWAP1 JUMP JUMPDEST DUP1 DUP3 MUL DUP2 ISZERO DUP3 DUP3 DIV DUP5 EQ OR PUSH2 0x5D0 JUMPI PUSH2 0x5D0 PUSH2 0x5A7 JUMP JUMPDEST DUP1 DUP3 ADD DUP1 DUP3 GT ISZERO PUSH2 0x5D0 JUMPI PUSH2 0x5D0 PUSH2 0x5A7 JUMP JUMPDEST PUSH1 0x0 DUP2 MLOAD PUSH1 0x0 JUMPDEST DUP2 DUP2 LT ISZERO PUSH2 0x66E JUMPI PUSH1 0x20 DUP2 DUP6 ADD DUP2 ADD MLOAD DUP7 DUP4 ADD MSTORE ADD PUSH2 0x654 JUMP JUMPDEST POP PUSH1 0x0 SWAP4 ADD SWAP3 DUP4 MSTORE POP SWAP1 SWAP2 SWAP1 POP JUMP JUMPDEST PUSH1 0x0 PUSH2 0x692 PUSH2 0x68C DUP4 DUP7 PUSH2 0x64D JUMP JUMPDEST DUP5 PUSH2 0x64D JUMP JUMPDEST SWAP5 SWAP4 POP POP POP POP JUMP JUMPDEST DUP2 DUP4 DUP3 CALLDATACOPY PUSH1 0x0 SWAP2 ADD SWAP1 DUP2 MSTORE SWAP2 SWAP1 POP JUMP INVALID LOG2 PUSH5 0x6970667358 0x22 SLT KECCAK256 DUP13 0xF PUSH20 0x4FA5A45084C5A6AA52DE4B221AEB7906EF5F0221 0x27 COINBASE 0xC 0x2C PUSH31 0x68F72FB564736F6C6343000811003300000000000000000000000000000000 "},"methodIdentifiers":{"getCombinedRandomNumber(string)":"7457ec8b","getRandomNumber(string)":"d305843c","setSignature(uint8,bytes32,bytes32)":"82c389d6","verifyString(string,uint8,bytes32,bytes32)":"d2c3fbb7"}}}}}