{"contracts/TokenizedBallot.sol":{"TokenizedBallot":{"abi":[{"inputs":[{"internalType":"bytes32[]","name":"proposalNames","type":"bytes32[]"},{"internalType":"contract ITokenizedVotes","name":"_tokenContract","type":"address"},{"internalType":"uint256","name":"_referenceBlock","type":"uint256"}],"stateMutability":"nonpayable","type":"constructor"},{"inputs":[{"internalType":"uint256","name":"","type":"uint256"}],"name":"proposals","outputs":[{"internalType":"bytes32","name":"name","type":"bytes32"},{"internalType":"uint256","name":"voteCount","type":"uint256"}],"stateMutability":"view","type":"function"},{"inputs":[],"name":"referenceBlock","outputs":[{"internalType":"uint256","name":"","type":"uint256"}],"stateMutability":"view","type":"function"},{"inputs":[],"name":"tokenContract","outputs":[{"internalType":"contract ITokenizedVotes","name":"","type":"address"}],"stateMutability":"view","type":"function"},{"inputs":[{"internalType":"uint256","name":"proposal","type":"uint256"},{"internalType":"uint256","name":"amount","type":"uint256"}],"name":"vote","outputs":[],"stateMutability":"nonpayable","type":"function"},{"inputs":[{"internalType":"address","name":"account","type":"address"}],"name":"votePower","outputs":[{"internalType":"uint256","name":"votePower_","type":"uint256"}],"stateMutability":"view","type":"function"},{"inputs":[{"internalType":"address","name":"","type":"address"}],"name":"votePowerSpent","outputs":[{"internalType":"uint256","name":"","type":"uint256"}],"stateMutability":"view","type":"function"},{"inputs":[],"name":"winnerName","outputs":[{"internalType":"bytes32","name":"winnerName_","type":"bytes32"}],"stateMutability":"view","type":"function"},{"inputs":[],"name":"winningProposal","outputs":[{"internalType":"uint256","name":"winningProposal_","type":"uint256"}],"stateMutability":"view","type":"function"}],"evm":{"bytecode":{"linkReferences":{},"object":"60806040523480156200001157600080fd5b5060405162000e4938038062000e49833981810160405281019062000037919062000398565b60005b8351811015620000ce576002604051806040016040528086848151811062000067576200006662000413565b5b6020026020010151815260200160008152509080600181540180825580915050600190039060005260206000209060020201600090919091909150600082015181600001556020820151816001015550508080620000c59062000471565b9150506200003a565b5081600160006101000a81548173ffffffffffffffffffffffffffffffffffffffff021916908373ffffffffffffffffffffffffffffffffffffffff16021790555080600081905550505050620004be565b6000604051905090565b600080fd5b600080fd5b600080fd5b6000601f19601f8301169050919050565b7f4e487b7100000000000000000000000000000000000000000000000000000000600052604160045260246000fd5b620001848262000139565b810181811067ffffffffffffffff82111715620001a657620001a56200014a565b5b80604052505050565b6000620001bb62000120565b9050620001c9828262000179565b919050565b600067ffffffffffffffff821115620001ec57620001eb6200014a565b5b602082029050602081019050919050565b600080fd5b6000819050919050565b620002178162000202565b81146200022357600080fd5b50565b60008151905062000237816200020c565b92915050565b6000620002546200024e84620001ce565b620001af565b905080838252602082019050602084028301858111156200027a5762000279620001fd565b5b835b81811015620002a7578062000292888262000226565b8452602084019350506020810190506200027c565b5050509392505050565b600082601f830112620002c957620002c862000134565b5b8151620002db8482602086016200023d565b91505092915050565b600073ffffffffffffffffffffffffffffffffffffffff82169050919050565b60006200031182620002e4565b9050919050565b6000620003258262000304565b9050919050565b620003378162000318565b81146200034357600080fd5b50565b60008151905062000357816200032c565b92915050565b6000819050919050565b62000372816200035d565b81146200037e57600080fd5b50565b600081519050620003928162000367565b92915050565b600080600060608486031215620003b457620003b36200012a565b5b600084015167ffffffffffffffff811115620003d557620003d46200012f565b5b620003e386828701620002b1565b9350506020620003f68682870162000346565b9250506040620004098682870162000381565b9150509250925092565b7f4e487b7100000000000000000000000000000000000000000000000000000000600052603260045260246000fd5b7f4e487b7100000000000000000000000000000000000000000000000000000000600052601160045260246000fd5b60006200047e826200035d565b91507fffffffffffffffffffffffffffffffffffffffffffffffffffffffffffffffff8203620004b357620004b262000442565b5b600182019050919050565b61097b80620004ce6000396000f3fe608060405234801561001057600080fd5b50600436106100885760003560e01c8063b384abef1161005b578063b384abef1461012a578063d94c8caa14610146578063e2ba53f014610164578063e490e6991461018257610088565b8063013cf08b1461008d57806355a373d6146100be578063609ff1bd146100dc5780639e90d0d9146100fa575b600080fd5b6100a760048036038101906100a291906104fb565b6101b2565b6040516100b5929190610550565b60405180910390f35b6100c66101e6565b6040516100d391906105f8565b60405180910390f35b6100e461020c565b6040516100f19190610613565b60405180910390f35b610114600480360381019061010f919061066c565b610294565b6040516101219190610613565b60405180910390f35b610144600480360381019061013f9190610699565b6102ac565b005b61014e610393565b60405161015b9190610613565b60405180910390f35b61016c610399565b60405161017991906106d9565b60405180910390f35b61019c6004803603810190610197919061066c565b6103cd565b6040516101a99190610613565b60405180910390f35b600281815481106101c257600080fd5b90600052602060002090600202016000915090508060000154908060010154905082565b600160009054906101000a900473ffffffffffffffffffffffffffffffffffffffff1681565b6000806000905060005b60028054905081101561028f578160028281548110610238576102376106f4565b5b906000526020600020906002020160010154111561027c5760028181548110610264576102636106f4565b5b90600052602060002090600202016001015491508092505b808061028790610752565b915050610216565b505090565b60036020528060005260406000206000915090505481565b60006102b7336103cd565b9050818110156102fc576040517f08c379a00000000000000000000000000000000000000000000000000000000081526004016102f390610843565b60405180910390fd5b81600360003373ffffffffffffffffffffffffffffffffffffffff1673ffffffffffffffffffffffffffffffffffffffff168152602001908152602001600020600082825461034b9190610863565b925050819055508160028481548110610367576103666106f4565b5b906000526020600020906002020160010160008282546103879190610863565b92505081905550505050565b60005481565b600060026103a561020c565b815481106103b6576103b56106f4565b5b906000526020600020906002020160000154905090565b6000600360008373ffffffffffffffffffffffffffffffffffffffff1673ffffffffffffffffffffffffffffffffffffffff16815260200190815260200160002054600160009054906101000a900473ffffffffffffffffffffffffffffffffffffffff1673ffffffffffffffffffffffffffffffffffffffff16633a46b1a8846000546040518363ffffffff1660e01b815260040161046e9291906108a6565b602060405180830381865afa15801561048b573d6000803e3d6000fd5b505050506040513d601f19601f820116820180604052508101906104af91906108e4565b6104b99190610911565b9050919050565b600080fd5b6000819050919050565b6104d8816104c5565b81146104e357600080fd5b50565b6000813590506104f5816104cf565b92915050565b600060208284031215610511576105106104c0565b5b600061051f848285016104e6565b91505092915050565b6000819050919050565b61053b81610528565b82525050565b61054a816104c5565b82525050565b60006040820190506105656000830185610532565b6105726020830184610541565b9392505050565b600073ffffffffffffffffffffffffffffffffffffffff82169050919050565b6000819050919050565b60006105be6105b96105b484610579565b610599565b610579565b9050919050565b60006105d0826105a3565b9050919050565b60006105e2826105c5565b9050919050565b6105f2816105d7565b82525050565b600060208201905061060d60008301846105e9565b92915050565b60006020820190506106286000830184610541565b92915050565b600061063982610579565b9050919050565b6106498161062e565b811461065457600080fd5b50565b60008135905061066681610640565b92915050565b600060208284031215610682576106816104c0565b5b600061069084828501610657565b91505092915050565b600080604083850312156106b0576106af6104c0565b5b60006106be858286016104e6565b92505060206106cf858286016104e6565b9150509250929050565b60006020820190506106ee6000830184610532565b92915050565b7f4e487b7100000000000000000000000000000000000000000000000000000000600052603260045260246000fd5b7f4e487b7100000000000000000000000000000000000000000000000000000000600052601160045260246000fd5b600061075d826104c5565b91507fffffffffffffffffffffffffffffffffffffffffffffffffffffffffffffffff820361078f5761078e610723565b5b600182019050919050565b600082825260208201905092915050565b7f546f6b656e697a656442616c6c6f743a20547279696e6720746f20766f74652060008201527f77697468206d6f7265207468616e2074686520766f74696e6720706f7765722060208201527f617661696c61626c6520666f722074686973206163636f756e742e0000000000604082015250565b600061082d605b8361079a565b9150610838826107ab565b606082019050919050565b6000602082019050818103600083015261085c81610820565b9050919050565b600061086e826104c5565b9150610879836104c5565b925082820190508082111561089157610890610723565b5b92915050565b6108a08161062e565b82525050565b60006040820190506108bb6000830185610897565b6108c86020830184610541565b9392505050565b6000815190506108de816104cf565b92915050565b6000602082840312156108fa576108f96104c0565b5b6000610908848285016108cf565b91505092915050565b600061091c826104c5565b9150610927836104c5565b925082820390508181111561093f5761093e610723565b5b9291505056fea26469706673582212207d3636ec4b9c879830dbcf58044bfbc29640b5cc4e6105711a5e25d939cb3fbb64736f6c63430008110033","opcodes":"PUSH1 0x80 PUSH1 0x40 MSTORE CALLVALUE DUP1 ISZERO PUSH3 0x11 JUMPI PUSH1 0x0 DUP1 REVERT JUMPDEST POP PUSH1 0x40 MLOAD PUSH3 0xE49 CODESIZE SUB DUP1 PUSH3 0xE49 DUP4 CODECOPY DUP2 DUP2 ADD PUSH1 0x40 MSTORE DUP2 ADD SWAP1 PUSH3 0x37 SWAP2 SWAP1 PUSH3 0x398 JUMP JUMPDEST PUSH1 0x0 JUMPDEST DUP4 MLOAD DUP2 LT ISZERO PUSH3 0xCE JUMPI PUSH1 0x2 PUSH1 0x40 MLOAD DUP1 PUSH1 0x40 ADD PUSH1 0x40 MSTORE DUP1 DUP7 DUP5 DUP2 MLOAD DUP2 LT PUSH3 0x67 JUMPI PUSH3 0x66 PUSH3 0x413 JUMP JUMPDEST JUMPDEST PUSH1 0x20 MUL PUSH1 0x20 ADD ADD MLOAD DUP2 MSTORE PUSH1 0x20 ADD PUSH1 0x0 DUP2 MSTORE POP SWAP1 DUP1 PUSH1 0x1 DUP2 SLOAD ADD DUP1 DUP3 SSTORE DUP1 SWAP2 POP POP PUSH1 0x1 SWAP1 SUB SWAP1 PUSH1 0x0 MSTORE PUSH1 0x20 PUSH1 0x0 KECCAK256 SWAP1 PUSH1 0x2 MUL ADD PUSH1 0x0 SWAP1 SWAP2 SWAP1 SWAP2 SWAP1 SWAP2 POP PUSH1 0x0 DUP3 ADD MLOAD DUP2 PUSH1 0x0 ADD SSTORE PUSH1 0x20 DUP3 ADD MLOAD DUP2 PUSH1 0x1 ADD SSTORE POP POP DUP1 DUP1 PUSH3 0xC5 SWAP1 PUSH3 0x471 JUMP JUMPDEST SWAP2 POP POP PUSH3 0x3A JUMP JUMPDEST POP DUP2 PUSH1 0x1 PUSH1 0x0 PUSH2 0x100 EXP DUP2 SLOAD DUP2 PUSH20 0xFFFFFFFFFFFFFFFFFFFFFFFFFFFFFFFFFFFFFFFF MUL NOT AND SWAP1 DUP4 PUSH20 0xFFFFFFFFFFFFFFFFFFFFFFFFFFFFFFFFFFFFFFFF AND MUL OR SWAP1 SSTORE POP DUP1 PUSH1 0x0 DUP2 SWAP1 SSTORE POP POP POP POP PUSH3 0x4BE JUMP JUMPDEST PUSH1 0x0 PUSH1 0x40 MLOAD SWAP1 POP SWAP1 JUMP JUMPDEST PUSH1 0x0 DUP1 REVERT JUMPDEST PUSH1 0x0 DUP1 REVERT JUMPDEST PUSH1 0x0 DUP1 REVERT JUMPDEST PUSH1 0x0 PUSH1 0x1F NOT PUSH1 0x1F DUP4 ADD AND SWAP1 POP SWAP2 SWAP1 POP JUMP JUMPDEST PUSH32 0x4E487B7100000000000000000000000000000000000000000000000000000000 PUSH1 0x0 MSTORE PUSH1 0x41 PUSH1 0x4 MSTORE PUSH1 0x24 PUSH1 0x0 REVERT JUMPDEST PUSH3 0x184 DUP3 PUSH3 0x139 JUMP JUMPDEST DUP2 ADD DUP2 DUP2 LT PUSH8 0xFFFFFFFFFFFFFFFF DUP3 GT OR ISZERO PUSH3 0x1A6 JUMPI PUSH3 0x1A5 PUSH3 0x14A JUMP JUMPDEST JUMPDEST DUP1 PUSH1 0x40 MSTORE POP POP POP JUMP JUMPDEST PUSH1 0x0 PUSH3 0x1BB PUSH3 0x120 JUMP JUMPDEST SWAP1 POP PUSH3 0x1C9 DUP3 DUP3 PUSH3 0x179 JUMP JUMPDEST SWAP2 SWAP1 POP JUMP JUMPDEST PUSH1 0x0 PUSH8 0xFFFFFFFFFFFFFFFF DUP3 GT ISZERO PUSH3 0x1EC JUMPI PUSH3 0x1EB PUSH3 0x14A JUMP JUMPDEST JUMPDEST PUSH1 0x20 DUP3 MUL SWAP1 POP PUSH1 0x20 DUP2 ADD SWAP1 POP SWAP2 SWAP1 POP JUMP JUMPDEST PUSH1 0x0 DUP1 REVERT JUMPDEST PUSH1 0x0 DUP2 SWAP1 POP SWAP2 SWAP1 POP JUMP JUMPDEST PUSH3 0x217 DUP2 PUSH3 0x202 JUMP JUMPDEST DUP2 EQ PUSH3 0x223 JUMPI PUSH1 0x0 DUP1 REVERT JUMPDEST POP JUMP JUMPDEST PUSH1 0x0 DUP2 MLOAD SWAP1 POP PUSH3 0x237 DUP2 PUSH3 0x20C JUMP JUMPDEST SWAP3 SWAP2 POP POP JUMP JUMPDEST PUSH1 0x0 PUSH3 0x254 PUSH3 0x24E DUP5 PUSH3 0x1CE JUMP JUMPDEST PUSH3 0x1AF JUMP JUMPDEST SWAP1 POP DUP1 DUP4 DUP3 MSTORE PUSH1 0x20 DUP3 ADD SWAP1 POP PUSH1 0x20 DUP5 MUL DUP4 ADD DUP6 DUP2 GT ISZERO PUSH3 0x27A JUMPI PUSH3 0x279 PUSH3 0x1FD JUMP JUMPDEST JUMPDEST DUP4 JUMPDEST DUP2 DUP2 LT ISZERO PUSH3 0x2A7 JUMPI DUP1 PUSH3 0x292 DUP9 DUP3 PUSH3 0x226 JUMP JUMPDEST DUP5 MSTORE PUSH1 0x20 DUP5 ADD SWAP4 POP POP PUSH1 0x20 DUP2 ADD SWAP1 POP PUSH3 0x27C JUMP JUMPDEST POP POP POP SWAP4 SWAP3 POP POP POP JUMP JUMPDEST PUSH1 0x0 DUP3 PUSH1 0x1F DUP4 ADD SLT PUSH3 0x2C9 JUMPI PUSH3 0x2C8 PUSH3 0x134 JUMP JUMPDEST JUMPDEST DUP2 MLOAD PUSH3 0x2DB DUP5 DUP3 PUSH1 0x20 DUP7 ADD PUSH3 0x23D JUMP JUMPDEST SWAP2 POP POP SWAP3 SWAP2 POP POP JUMP JUMPDEST PUSH1 0x0 PUSH20 0xFFFFFFFFFFFFFFFFFFFFFFFFFFFFFFFFFFFFFFFF DUP3 AND SWAP1 POP SWAP2 SWAP1 POP JUMP JUMPDEST PUSH1 0x0 PUSH3 0x311 DUP3 PUSH3 0x2E4 JUMP JUMPDEST SWAP1 POP SWAP2 SWAP1 POP JUMP JUMPDEST PUSH1 0x0 PUSH3 0x325 DUP3 PUSH3 0x304 JUMP JUMPDEST SWAP1 POP SWAP2 SWAP1 POP JUMP JUMPDEST PUSH3 0x337 DUP2 PUSH3 0x318 JUMP JUMPDEST DUP2 EQ PUSH3 0x343 JUMPI PUSH1 0x0 DUP1 REVERT JUMPDEST POP JUMP JUMPDEST PUSH1 0x0 DUP2 MLOAD SWAP1 POP PUSH3 0x357 DUP2 PUSH3 0x32C JUMP JUMPDEST SWAP3 SWAP2 POP POP JUMP JUMPDEST PUSH1 0x0 DUP2 SWAP1 POP SWAP2 SWAP1 POP JUMP JUMPDEST PUSH3 0x372 DUP2 PUSH3 0x35D JUMP JUMPDEST DUP2 EQ PUSH3 0x37E JUMPI PUSH1 0x0 DUP1 REVERT JUMPDEST POP JUMP JUMPDEST PUSH1 0x0 DUP2 MLOAD SWAP1 POP PUSH3 0x392 DUP2 PUSH3 0x367 JUMP JUMPDEST SWAP3 SWAP2 POP POP JUMP JUMPDEST PUSH1 0x0 DUP1 PUSH1 0x0 PUSH1 0x60 DUP5 DUP7 SUB SLT ISZERO PUSH3 0x3B4 JUMPI PUSH3 0x3B3 PUSH3 0x12A JUMP JUMPDEST JUMPDEST PUSH1 0x0 DUP5 ADD MLOAD PUSH8 0xFFFFFFFFFFFFFFFF DUP2 GT ISZERO PUSH3 0x3D5 JUMPI PUSH3 0x3D4 PUSH3 0x12F JUMP JUMPDEST JUMPDEST PUSH3 0x3E3 DUP7 DUP3 DUP8 ADD PUSH3 0x2B1 JUMP JUMPDEST SWAP4 POP POP PUSH1 0x20 PUSH3 0x3F6 DUP7 DUP3 DUP8 ADD PUSH3 0x346 JUMP JUMPDEST SWAP3 POP POP PUSH1 0x40 PUSH3 0x409 DUP7 DUP3 DUP8 ADD PUSH3 0x381 JUMP JUMPDEST SWAP2 POP POP SWAP3 POP SWAP3 POP SWAP3 JUMP JUMPDEST PUSH32 0x4E487B7100000000000000000000000000000000000000000000000000000000 PUSH1 0x0 MSTORE PUSH1 0x32 PUSH1 0x4 MSTORE PUSH1 0x24 PUSH1 0x0 REVERT JUMPDEST PUSH32 0x4E487B7100000000000000000000000000000000000000000000000000000000 PUSH1 0x0 MSTORE PUSH1 0x11 PUSH1 0x4 MSTORE PUSH1 0x24 PUSH1 0x0 REVERT JUMPDEST PUSH1 0x0 PUSH3 0x47E DUP3 PUSH3 0x35D JUMP JUMPDEST SWAP2 POP PUSH32 0xFFFFFFFFFFFFFFFFFFFFFFFFFFFFFFFFFFFFFFFFFFFFFFFFFFFFFFFFFFFFFFFF DUP3 SUB PUSH3 0x4B3 JUMPI PUSH3 0x4B2 PUSH3 0x442 JUMP JUMPDEST JUMPDEST PUSH1 0x1 DUP3 ADD SWAP1 POP SWAP2 SWAP1 POP JUMP JUMPDEST PUSH2 0x97B DUP1 PUSH3 0x4CE PUSH1 0x0 CODECOPY PUSH1 0x0 RETURN INVALID PUSH1 0x80 PUSH1 0x40 MSTORE CALLVALUE DUP1 ISZERO PUSH2 0x10 JUMPI PUSH1 0x0 DUP1 REVERT JUMPDEST POP PUSH1 0x4 CALLDATASIZE LT PUSH2 0x88 JUMPI PUSH1 0x0 CALLDATALOAD PUSH1 0xE0 SHR DUP1 PUSH4 0xB384ABEF GT PUSH2 0x5B JUMPI DUP1 PUSH4 0xB384ABEF EQ PUSH2 0x12A JUMPI DUP1 PUSH4 0xD94C8CAA EQ PUSH2 0x146 JUMPI DUP1 PUSH4 0xE2BA53F0 EQ PUSH2 0x164 JUMPI DUP1 PUSH4 0xE490E699 EQ PUSH2 0x182 JUMPI PUSH2 0x88 JUMP JUMPDEST DUP1 PUSH4 0x13CF08B EQ PUSH2 0x8D JUMPI DUP1 PUSH4 0x55A373D6 EQ PUSH2 0xBE JUMPI DUP1 PUSH4 0x609FF1BD EQ PUSH2 0xDC JUMPI DUP1 PUSH4 0x9E90D0D9 EQ PUSH2 0xFA JUMPI JUMPDEST PUSH1 0x0 DUP1 REVERT JUMPDEST PUSH2 0xA7 PUSH1 0x4 DUP1 CALLDATASIZE SUB DUP2 ADD SWAP1 PUSH2 0xA2 SWAP2 SWAP1 PUSH2 0x4FB JUMP JUMPDEST PUSH2 0x1B2 JUMP JUMPDEST PUSH1 0x40 MLOAD PUSH2 0xB5 SWAP3 SWAP2 SWAP1 PUSH2 0x550 JUMP JUMPDEST PUSH1 0x40 MLOAD DUP1 SWAP2 SUB SWAP1 RETURN JUMPDEST PUSH2 0xC6 PUSH2 0x1E6 JUMP JUMPDEST PUSH1 0x40 MLOAD PUSH2 0xD3 SWAP2 SWAP1 PUSH2 0x5F8 JUMP JUMPDEST PUSH1 0x40 MLOAD DUP1 SWAP2 SUB SWAP1 RETURN JUMPDEST PUSH2 0xE4 PUSH2 0x20C JUMP JUMPDEST PUSH1 0x40 MLOAD PUSH2 0xF1 SWAP2 SWAP1 PUSH2 0x613 JUMP JUMPDEST PUSH1 0x40 MLOAD DUP1 SWAP2 SUB SWAP1 RETURN JUMPDEST PUSH2 0x114 PUSH1 0x4 DUP1 CALLDATASIZE SUB DUP2 ADD SWAP1 PUSH2 0x10F SWAP2 SWAP1 PUSH2 0x66C JUMP JUMPDEST PUSH2 0x294 JUMP JUMPDEST PUSH1 0x40 MLOAD PUSH2 0x121 SWAP2 SWAP1 PUSH2 0x613 JUMP JUMPDEST PUSH1 0x40 MLOAD DUP1 SWAP2 SUB SWAP1 RETURN JUMPDEST PUSH2 0x144 PUSH1 0x4 DUP1 CALLDATASIZE SUB DUP2 ADD SWAP1 PUSH2 0x13F SWAP2 SWAP1 PUSH2 0x699 JUMP JUMPDEST PUSH2 0x2AC JUMP JUMPDEST STOP JUMPDEST PUSH2 0x14E PUSH2 0x393 JUMP JUMPDEST PUSH1 0x40 MLOAD PUSH2 0x15B SWAP2 SWAP1 PUSH2 0x613 JUMP JUMPDEST PUSH1 0x40 MLOAD DUP1 SWAP2 SUB SWAP1 RETURN JUMPDEST PUSH2 0x16C PUSH2 0x399 JUMP JUMPDEST PUSH1 0x40 MLOAD PUSH2 0x179 SWAP2 SWAP1 PUSH2 0x6D9 JUMP JUMPDEST PUSH1 0x40 MLOAD DUP1 SWAP2 SUB SWAP1 RETURN JUMPDEST PUSH2 0x19C PUSH1 0x4 DUP1 CALLDATASIZE SUB DUP2 ADD SWAP1 PUSH2 0x197 SWAP2 SWAP1 PUSH2 0x66C JUMP JUMPDEST PUSH2 0x3CD JUMP JUMPDEST PUSH1 0x40 MLOAD PUSH2 0x1A9 SWAP2 SWAP1 PUSH2 0x613 JUMP JUMPDEST PUSH1 0x40 MLOAD DUP1 SWAP2 SUB SWAP1 RETURN JUMPDEST PUSH1 0x2 DUP2 DUP2 SLOAD DUP2 LT PUSH2 0x1C2 JUMPI PUSH1 0x0 DUP1 REVERT JUMPDEST SWAP1 PUSH1 0x0 MSTORE PUSH1 0x20 PUSH1 0x0 KECCAK256 SWAP1 PUSH1 0x2 MUL ADD PUSH1 0x0 SWAP2 POP SWAP1 POP DUP1 PUSH1 0x0 ADD SLOAD SWAP1 DUP1 PUSH1 0x1 ADD SLOAD SWAP1 POP DUP3 JUMP JUMPDEST PUSH1 0x1 PUSH1 0x0 SWAP1 SLOAD SWAP1 PUSH2 0x100 EXP SWAP1 DIV PUSH20 0xFFFFFFFFFFFFFFFFFFFFFFFFFFFFFFFFFFFFFFFF AND DUP2 JUMP JUMPDEST PUSH1 0x0 DUP1 PUSH1 0x0 SWAP1 POP PUSH1 0x0 JUMPDEST PUSH1 0x2 DUP1 SLOAD SWAP1 POP DUP2 LT ISZERO PUSH2 0x28F JUMPI DUP2 PUSH1 0x2 DUP3 DUP2 SLOAD DUP2 LT PUSH2 0x238 JUMPI PUSH2 0x237 PUSH2 0x6F4 JUMP JUMPDEST JUMPDEST SWAP1 PUSH1 0x0 MSTORE PUSH1 0x20 PUSH1 0x0 KECCAK256 SWAP1 PUSH1 0x2 MUL ADD PUSH1 0x1 ADD SLOAD GT ISZERO PUSH2 0x27C JUMPI PUSH1 0x2 DUP2 DUP2 SLOAD DUP2 LT PUSH2 0x264 JUMPI PUSH2 0x263 PUSH2 0x6F4 JUMP JUMPDEST JUMPDEST SWAP1 PUSH1 0x0 MSTORE PUSH1 0x20 PUSH1 0x0 KECCAK256 SWAP1 PUSH1 0x2 MUL ADD PUSH1 0x1 ADD SLOAD SWAP2 POP DUP1 SWAP3 POP JUMPDEST DUP1 DUP1 PUSH2 0x287 SWAP1 PUSH2 0x752 JUMP JUMPDEST SWAP2 POP POP PUSH2 0x216 JUMP JUMPDEST POP POP SWAP1 JUMP JUMPDEST PUSH1 0x3 PUSH1 0x20 MSTORE DUP1 PUSH1 0x0 MSTORE PUSH1 0x40 PUSH1 0x0 KECCAK256 PUSH1 0x0 SWAP2 POP SWAP1 POP SLOAD DUP2 JUMP JUMPDEST PUSH1 0x0 PUSH2 0x2B7 CALLER PUSH2 0x3CD JUMP JUMPDEST SWAP1 POP DUP2 DUP2 LT ISZERO PUSH2 0x2FC JUMPI PUSH1 0x40 MLOAD PUSH32 0x8C379A000000000000000000000000000000000000000000000000000000000 DUP2 MSTORE PUSH1 0x4 ADD PUSH2 0x2F3 SWAP1 PUSH2 0x843 JUMP JUMPDEST PUSH1 0x40 MLOAD DUP1 SWAP2 SUB SWAP1 REVERT JUMPDEST DUP2 PUSH1 0x3 PUSH1 0x0 CALLER PUSH20 0xFFFFFFFFFFFFFFFFFFFFFFFFFFFFFFFFFFFFFFFF AND PUSH20 0xFFFFFFFFFFFFFFFFFFFFFFFFFFFFFFFFFFFFFFFF AND DUP2 MSTORE PUSH1 0x20 ADD SWAP1 DUP2 MSTORE PUSH1 0x20 ADD PUSH1 0x0 KECCAK256 PUSH1 0x0 DUP3 DUP3 SLOAD PUSH2 0x34B SWAP2 SWAP1 PUSH2 0x863 JUMP JUMPDEST SWAP3 POP POP DUP2 SWAP1 SSTORE POP DUP2 PUSH1 0x2 DUP5 DUP2 SLOAD DUP2 LT PUSH2 0x367 JUMPI PUSH2 0x366 PUSH2 0x6F4 JUMP JUMPDEST JUMPDEST SWAP1 PUSH1 0x0 MSTORE PUSH1 0x20 PUSH1 0x0 KECCAK256 SWAP1 PUSH1 0x2 MUL ADD PUSH1 0x1 ADD PUSH1 0x0 DUP3 DUP3 SLOAD PUSH2 0x387 SWAP2 SWAP1 PUSH2 0x863 JUMP JUMPDEST SWAP3 POP POP DUP2 SWAP1 SSTORE POP POP POP POP JUMP JUMPDEST PUSH1 0x0 SLOAD DUP2 JUMP JUMPDEST PUSH1 0x0 PUSH1 0x2 PUSH2 0x3A5 PUSH2 0x20C JUMP JUMPDEST DUP2 SLOAD DUP2 LT PUSH2 0x3B6 JUMPI PUSH2 0x3B5 PUSH2 0x6F4 JUMP JUMPDEST JUMPDEST SWAP1 PUSH1 0x0 MSTORE PUSH1 0x20 PUSH1 0x0 KECCAK256 SWAP1 PUSH1 0x2 MUL ADD PUSH1 0x0 ADD SLOAD SWAP1 POP SWAP1 JUMP JUMPDEST PUSH1 0x0 PUSH1 0x3 PUSH1 0x0 DUP4 PUSH20 0xFFFFFFFFFFFFFFFFFFFFFFFFFFFFFFFFFFFFFFFF AND PUSH20 0xFFFFFFFFFFFFFFFFFFFFFFFFFFFFFFFFFFFFFFFF AND DUP2 MSTORE PUSH1 0x20 ADD SWAP1 DUP2 MSTORE PUSH1 0x20 ADD PUSH1 0x0 KECCAK256 SLOAD PUSH1 0x1 PUSH1 0x0 SWAP1 SLOAD SWAP1 PUSH2 0x100 EXP SWAP1 DIV PUSH20 0xFFFFFFFFFFFFFFFFFFFFFFFFFFFFFFFFFFFFFFFF AND PUSH20 0xFFFFFFFFFFFFFFFFFFFFFFFFFFFFFFFFFFFFFFFF AND PUSH4 0x3A46B1A8 DUP5 PUSH1 0x0 SLOAD PUSH1 0x40 MLOAD DUP4 PUSH4 0xFFFFFFFF AND PUSH1 0xE0 SHL DUP2 MSTORE PUSH1 0x4 ADD PUSH2 0x46E SWAP3 SWAP2 SWAP1 PUSH2 0x8A6 JUMP JUMPDEST PUSH1 0x20 PUSH1 0x40 MLOAD DUP1 DUP4 SUB DUP2 DUP7 GAS STATICCALL ISZERO DUP1 ISZERO PUSH2 0x48B JUMPI RETURNDATASIZE PUSH1 0x0 DUP1 RETURNDATACOPY RETURNDATASIZE PUSH1 0x0 REVERT JUMPDEST POP POP POP POP PUSH1 0x40 MLOAD RETURNDATASIZE PUSH1 0x1F NOT PUSH1 0x1F DUP3 ADD AND DUP3 ADD DUP1 PUSH1 0x40 MSTORE POP DUP2 ADD SWAP1 PUSH2 0x4AF SWAP2 SWAP1 PUSH2 0x8E4 JUMP JUMPDEST PUSH2 0x4B9 SWAP2 SWAP1 PUSH2 0x911 JUMP JUMPDEST SWAP1 POP SWAP2 SWAP1 POP JUMP JUMPDEST PUSH1 0x0 DUP1 REVERT JUMPDEST PUSH1 0x0 DUP2 SWAP1 POP SWAP2 SWAP1 POP JUMP JUMPDEST PUSH2 0x4D8 DUP2 PUSH2 0x4C5 JUMP JUMPDEST DUP2 EQ PUSH2 0x4E3 JUMPI PUSH1 0x0 DUP1 REVERT JUMPDEST POP JUMP JUMPDEST PUSH1 0x0 DUP2 CALLDATALOAD SWAP1 POP PUSH2 0x4F5 DUP2 PUSH2 0x4CF JUMP JUMPDEST SWAP3 SWAP2 POP POP JUMP JUMPDEST PUSH1 0x0 PUSH1 0x20 DUP3 DUP5 SUB SLT ISZERO PUSH2 0x511 JUMPI PUSH2 0x510 PUSH2 0x4C0 JUMP JUMPDEST JUMPDEST PUSH1 0x0 PUSH2 0x51F DUP5 DUP3 DUP6 ADD PUSH2 0x4E6 JUMP JUMPDEST SWAP2 POP POP SWAP3 SWAP2 POP POP JUMP JUMPDEST PUSH1 0x0 DUP2 SWAP1 POP SWAP2 SWAP1 POP JUMP JUMPDEST PUSH2 0x53B DUP2 PUSH2 0x528 JUMP JUMPDEST DUP3 MSTORE POP POP JUMP JUMPDEST PUSH2 0x54A DUP2 PUSH2 0x4C5 JUMP JUMPDEST DUP3 MSTORE POP POP JUMP JUMPDEST PUSH1 0x0 PUSH1 0x40 DUP3 ADD SWAP1 POP PUSH2 0x565 PUSH1 0x0 DUP4 ADD DUP6 PUSH2 0x532 JUMP JUMPDEST PUSH2 0x572 PUSH1 0x20 DUP4 ADD DUP5 PUSH2 0x541 JUMP JUMPDEST SWAP4 SWAP3 POP POP POP JUMP JUMPDEST PUSH1 0x0 PUSH20 0xFFFFFFFFFFFFFFFFFFFFFFFFFFFFFFFFFFFFFFFF DUP3 AND SWAP1 POP SWAP2 SWAP1 POP JUMP JUMPDEST PUSH1 0x0 DUP2 SWAP1 POP SWAP2 SWAP1 POP JUMP JUMPDEST PUSH1 0x0 PUSH2 0x5BE PUSH2 0x5B9 PUSH2 0x5B4 DUP5 PUSH2 0x579 JUMP JUMPDEST PUSH2 0x599 JUMP JUMPDEST PUSH2 0x579 JUMP JUMPDEST SWAP1 POP SWAP2 SWAP1 POP JUMP JUMPDEST PUSH1 0x0 PUSH2 0x5D0 DUP3 PUSH2 0x5A3 JUMP JUMPDEST SWAP1 POP SWAP2 SWAP1 POP JUMP JUMPDEST PUSH1 0x0 PUSH2 0x5E2 DUP3 PUSH2 0x5C5 JUMP JUMPDEST SWAP1 POP SWAP2 SWAP1 POP JUMP JUMPDEST PUSH2 0x5F2 DUP2 PUSH2 0x5D7 JUMP JUMPDEST DUP3 MSTORE POP POP JUMP JUMPDEST PUSH1 0x0 PUSH1 0x20 DUP3 ADD SWAP1 POP PUSH2 0x60D PUSH1 0x0 DUP4 ADD DUP5 PUSH2 0x5E9 JUMP JUMPDEST SWAP3 SWAP2 POP POP JUMP JUMPDEST PUSH1 0x0 PUSH1 0x20 DUP3 ADD SWAP1 POP PUSH2 0x628 PUSH1 0x0 DUP4 ADD DUP5 PUSH2 0x541 JUMP JUMPDEST SWAP3 SWAP2 POP POP JUMP JUMPDEST PUSH1 0x0 PUSH2 0x639 DUP3 PUSH2 0x579 JUMP JUMPDEST SWAP1 POP SWAP2 SWAP1 POP JUMP JUMPDEST PUSH2 0x649 DUP2 PUSH2 0x62E JUMP JUMPDEST DUP2 EQ PUSH2 0x654 JUMPI PUSH1 0x0 DUP1 REVERT JUMPDEST POP JUMP JUMPDEST PUSH1 0x0 DUP2 CALLDATALOAD SWAP1 POP PUSH2 0x666 DUP2 PUSH2 0x640 JUMP JUMPDEST SWAP3 SWAP2 POP POP JUMP JUMPDEST PUSH1 0x0 PUSH1 0x20 DUP3 DUP5 SUB SLT ISZERO PUSH2 0x682 JUMPI PUSH2 0x681 PUSH2 0x4C0 JUMP JUMPDEST JUMPDEST PUSH1 0x0 PUSH2 0x690 DUP5 DUP3 DUP6 ADD PUSH2 0x657 JUMP JUMPDEST SWAP2 POP POP SWAP3 SWAP2 POP POP JUMP JUMPDEST PUSH1 0x0 DUP1 PUSH1 0x40 DUP4 DUP6 SUB SLT ISZERO PUSH2 0x6B0 JUMPI PUSH2 0x6AF PUSH2 0x4C0 JUMP JUMPDEST JUMPDEST PUSH1 0x0 PUSH2 0x6BE DUP6 DUP3 DUP7 ADD PUSH2 0x4E6 JUMP JUMPDEST SWAP3 POP POP PUSH1 0x20 PUSH2 0x6CF DUP6 DUP3 DUP7 ADD PUSH2 0x4E6 JUMP JUMPDEST SWAP2 POP POP SWAP3 POP SWAP3 SWAP1 POP JUMP JUMPDEST PUSH1 0x0 PUSH1 0x20 DUP3 ADD SWAP1 POP PUSH2 0x6EE PUSH1 0x0 DUP4 ADD DUP5 PUSH2 0x532 JUMP JUMPDEST SWAP3 SWAP2 POP POP JUMP JUMPDEST PUSH32 0x4E487B7100000000000000000000000000000000000000000000000000000000 PUSH1 0x0 MSTORE PUSH1 0x32 PUSH1 0x4 MSTORE PUSH1 0x24 PUSH1 0x0 REVERT JUMPDEST PUSH32 0x4E487B7100000000000000000000000000000000000000000000000000000000 PUSH1 0x0 MSTORE PUSH1 0x11 PUSH1 0x4 MSTORE PUSH1 0x24 PUSH1 0x0 REVERT JUMPDEST PUSH1 0x0 PUSH2 0x75D DUP3 PUSH2 0x4C5 JUMP JUMPDEST SWAP2 POP PUSH32 0xFFFFFFFFFFFFFFFFFFFFFFFFFFFFFFFFFFFFFFFFFFFFFFFFFFFFFFFFFFFFFFFF DUP3 SUB PUSH2 0x78F JUMPI PUSH2 0x78E PUSH2 0x723 JUMP JUMPDEST JUMPDEST PUSH1 0x1 DUP3 ADD SWAP1 POP SWAP2 SWAP1 POP JUMP JUMPDEST PUSH1 0x0 DUP3 DUP3 MSTORE PUSH1 0x20 DUP3 ADD SWAP1 POP SWAP3 SWAP2 POP POP JUMP JUMPDEST PUSH32 0x546F6B656E697A656442616C6C6F743A20547279696E6720746F20766F746520 PUSH1 0x0 DUP3 ADD MSTORE PUSH32 0x77697468206D6F7265207468616E2074686520766F74696E6720706F77657220 PUSH1 0x20 DUP3 ADD MSTORE PUSH32 0x617661696C61626C6520666F722074686973206163636F756E742E0000000000 PUSH1 0x40 DUP3 ADD MSTORE POP JUMP JUMPDEST PUSH1 0x0 PUSH2 0x82D PUSH1 0x5B DUP4 PUSH2 0x79A JUMP JUMPDEST SWAP2 POP PUSH2 0x838 DUP3 PUSH2 0x7AB JUMP JUMPDEST PUSH1 0x60 DUP3 ADD SWAP1 POP SWAP2 SWAP1 POP JUMP JUMPDEST PUSH1 0x0 PUSH1 0x20 DUP3 ADD SWAP1 POP DUP2 DUP2 SUB PUSH1 0x0 DUP4 ADD MSTORE PUSH2 0x85C DUP2 PUSH2 0x820 JUMP JUMPDEST SWAP1 POP SWAP2 SWAP1 POP JUMP JUMPDEST PUSH1 0x0 PUSH2 0x86E DUP3 PUSH2 0x4C5 JUMP JUMPDEST SWAP2 POP PUSH2 0x879 DUP4 PUSH2 0x4C5 JUMP JUMPDEST SWAP3 POP DUP3 DUP3 ADD SWAP1 POP DUP1 DUP3 GT ISZERO PUSH2 0x891 JUMPI PUSH2 0x890 PUSH2 0x723 JUMP JUMPDEST JUMPDEST SWAP3 SWAP2 POP POP JUMP JUMPDEST PUSH2 0x8A0 DUP2 PUSH2 0x62E JUMP JUMPDEST DUP3 MSTORE POP POP JUMP JUMPDEST PUSH1 0x0 PUSH1 0x40 DUP3 ADD SWAP1 POP PUSH2 0x8BB PUSH1 0x0 DUP4 ADD DUP6 PUSH2 0x897 JUMP JUMPDEST PUSH2 0x8C8 PUSH1 0x20 DUP4 ADD DUP5 PUSH2 0x541 JUMP JUMPDEST SWAP4 SWAP3 POP POP POP JUMP JUMPDEST PUSH1 0x0 DUP2 MLOAD SWAP1 POP PUSH2 0x8DE DUP2 PUSH2 0x4CF JUMP JUMPDEST SWAP3 SWAP2 POP POP JUMP JUMPDEST PUSH1 0x0 PUSH1 0x20 DUP3 DUP5 SUB SLT ISZERO PUSH2 0x8FA JUMPI PUSH2 0x8F9 PUSH2 0x4C0 JUMP JUMPDEST JUMPDEST PUSH1 0x0 PUSH2 0x908 DUP5 DUP3 DUP6 ADD PUSH2 0x8CF JUMP JUMPDEST SWAP2 POP POP SWAP3 SWAP2 POP POP JUMP JUMPDEST PUSH1 0x0 PUSH2 0x91C DUP3 PUSH2 0x4C5 JUMP JUMPDEST SWAP2 POP PUSH2 0x927 DUP4 PUSH2 0x4C5 JUMP JUMPDEST SWAP3 POP DUP3 DUP3 SUB SWAP1 POP DUP2 DUP2 GT ISZERO PUSH2 0x93F JUMPI PUSH2 0x93E PUSH2 0x723 JUMP JUMPDEST JUMPDEST SWAP3 SWAP2 POP POP JUMP INVALID LOG2 PUSH5 0x6970667358 0x22 SLT KECCAK256 PUSH30 0x3636EC4B9C879830DBCF58044BFBC29640B5CC4E6105711A5E25D939CB3F 0xBB PUSH5 0x736F6C6343 STOP ADDMOD GT STOP CALLER "},"methodIdentifiers":{"proposals(uint256)":"013cf08b","referenceBlock()":"d94c8caa","tokenContract()":"55a373d6","vote(uint256,uint256)":"b384abef","votePower(address)":"e490e699","votePowerSpent(address)":"9e90d0d9","winnerName()":"e2ba53f0","winningProposal()":"609ff1bd"}}}}}