{
  "_format": "hh-sol-artifact-1",
  "contractName": "NotQuiteRandom",
  "sourceName": "contracts/NotQuiteRandom.sol",
  "abi": [
    {
      "inputs": [],
      "name": "getRandomNumber",
      "outputs": [
        {
          "internalType": "uint256",
          "name": "notQuiteRandomNumber",
          "type": "uint256"
        }
      ],
      "stateMutability": "view",
      "type": "function"
    },
    {
      "inputs": [],
      "name": "tossCoin",
      "outputs": [
        {
          "internalType": "bool",
          "name": "heads",
          "type": "bool"
        }
      ],
      "stateMutability": "view",
      "type": "function"
    }
  ],
  "bytecode": "0x608060405234801561001057600080fd5b5061010b806100206000396000f3fe6080604052348015600f57600080fd5b506004361060325760003560e01c8063b41e8cad146037578063dbdff2c1146052575b600080fd5b603d6065565b60405190151581526020015b60405180910390f35b6058607d565b6040519081526020016049565b60006002606f607d565b60779190608e565b15919050565b6000608860014360af565b40919050565b60008260aa57634e487b7160e01b600052601260045260246000fd5b500690565b8181038181111560cf57634e487b7160e01b600052601160045260246000fd5b9291505056fea264697066735822122034f68805b6ad7d756177d5c3af380c509541d6b44d7bbcc8bd4c77d5ca03ac3e64736f6c63430008110033",
  "linkReferences": {},
  "deployedLinkReferences": {}
}