{"contracts/SortedBallot.sol":{"SortedBallot":{"abi":[{"inputs":[{"internalType":"bytes32[]","name":"proposalNames","type":"bytes32[]"}],"stateMutability":"nonpayable","type":"constructor"},{"inputs":[{"internalType":"uint256","name":"","type":"uint256"}],"name":"proposals","outputs":[{"internalType":"bytes32","name":"name","type":"bytes32"},{"internalType":"uint256","name":"voteCount","type":"uint256"}],"stateMutability":"view","type":"function"},{"inputs":[],"name":"sortProposals","outputs":[],"stateMutability":"nonpayable","type":"function"}],"evm":{"bytecode":{"linkReferences":{},"object":"608060405234801561001057600080fd5b5060405161046838038061046883398101604081905261002f916100c2565b60005b81518110156100a5576000604051806040016040528084848151811061005a5761005a61017f565b6020908102919091018101518252600091810182905283546001818101865594835291819020835160029093020191825591909101519101558061009d81610195565b915050610032565b50506101bc565b634e487b7160e01b600052604160045260246000fd5b600060208083850312156100d557600080fd5b82516001600160401b03808211156100ec57600080fd5b818501915085601f83011261010057600080fd5b815181811115610112576101126100ac565b8060051b604051601f19603f83011681018181108582111715610137576101376100ac565b60405291825284820192508381018501918883111561015557600080fd5b938501935b828510156101735784518452938501939285019261015a565b98975050505050505050565b634e487b7160e01b600052603260045260246000fd5b6000600182016101b557634e487b7160e01b600052601160045260246000fd5b5060010190565b61029d806101cb6000396000f3fe608060405234801561001057600080fd5b50600436106100365760003560e01c8063013cf08b1461003b5780637d260bae14610067575b600080fd5b61004e6100493660046101f0565b610071565b6040805192835260208301919091520160405180910390f35b61006f61009f565b005b6000818154811061008157600080fd5b60009182526020909120600290910201805460019091015490915082565b600160005b6000806100b260018561021f565b815481106100c2576100c2610238565b60009182526020808320604080518082019091526002909302018054835260010154908201528154909250849081106100fd576100fd610238565b6000918252602090912060029091020154815111156101bc576000838154811061012957610129610238565b90600052602060002090600202016000600185610146919061021f565b8154811061015657610156610238565b90600052602060002090600202016000820154816000015560018201548160010155905050806000848154811061018f5761018f610238565b60009182526020918290208351600290920201908155910151600190910155816101b88161024e565b9250505b826101c68161024e565b600054909450841090506101ea57816000036101e157505050565b60009150600192505b506100a4565b60006020828403121561020257600080fd5b5035919050565b634e487b7160e01b600052601160045260246000fd5b8181038181111561023257610232610209565b92915050565b634e487b7160e01b600052603260045260246000fd5b60006001820161026057610260610209565b506001019056fea2646970667358221220684a8d0e15f0bb3820aabd32e6fa8229cc9db4534e46969653ec4d14f2e2939564736f6c63430008110033","opcodes":"PUSH1 0x80 PUSH1 0x40 MSTORE CALLVALUE DUP1 ISZERO PUSH2 0x10 JUMPI PUSH1 0x0 DUP1 REVERT JUMPDEST POP PUSH1 0x40 MLOAD PUSH2 0x468 CODESIZE SUB DUP1 PUSH2 0x468 DUP4 CODECOPY DUP2 ADD PUSH1 0x40 DUP2 SWAP1 MSTORE PUSH2 0x2F SWAP2 PUSH2 0xC2 JUMP JUMPDEST PUSH1 0x0 JUMPDEST DUP2 MLOAD DUP2 LT ISZERO PUSH2 0xA5 JUMPI PUSH1 0x0 PUSH1 0x40 MLOAD DUP1 PUSH1 0x40 ADD PUSH1 0x40 MSTORE DUP1 DUP5 DUP5 DUP2 MLOAD DUP2 LT PUSH2 0x5A JUMPI PUSH2 0x5A PUSH2 0x17F JUMP JUMPDEST PUSH1 0x20 SWAP1 DUP2 MUL SWAP2 SWAP1 SWAP2 ADD DUP2 ADD MLOAD DUP3 MSTORE PUSH1 0x0 SWAP2 DUP2 ADD DUP3 SWAP1 MSTORE DUP4 SLOAD PUSH1 0x1 DUP2 DUP2 ADD DUP7 SSTORE SWAP5 DUP4 MSTORE SWAP2 DUP2 SWAP1 KECCAK256 DUP4 MLOAD PUSH1 0x2 SWAP1 SWAP4 MUL ADD SWAP2 DUP3 SSTORE SWAP2 SWAP1 SWAP2 ADD MLOAD SWAP2 ADD SSTORE DUP1 PUSH2 0x9D DUP2 PUSH2 0x195 JUMP JUMPDEST SWAP2 POP POP PUSH2 0x32 JUMP JUMPDEST POP POP PUSH2 0x1BC JUMP JUMPDEST PUSH4 0x4E487B71 PUSH1 0xE0 SHL PUSH1 0x0 MSTORE PUSH1 0x41 PUSH1 0x4 MSTORE PUSH1 0x24 PUSH1 0x0 REVERT JUMPDEST PUSH1 0x0 PUSH1 0x20 DUP1 DUP4 DUP6 SUB SLT ISZERO PUSH2 0xD5 JUMPI PUSH1 0x0 DUP1 REVERT JUMPDEST DUP3 MLOAD PUSH1 0x1 PUSH1 0x1 PUSH1 0x40 SHL SUB DUP1 DUP3 GT ISZERO PUSH2 0xEC JUMPI PUSH1 0x0 DUP1 REVERT JUMPDEST DUP2 DUP6 ADD SWAP2 POP DUP6 PUSH1 0x1F DUP4 ADD SLT PUSH2 0x100 JUMPI PUSH1 0x0 DUP1 REVERT JUMPDEST DUP2 MLOAD DUP2 DUP2 GT ISZERO PUSH2 0x112 JUMPI PUSH2 0x112 PUSH2 0xAC JUMP JUMPDEST DUP1 PUSH1 0x5 SHL PUSH1 0x40 MLOAD PUSH1 0x1F NOT PUSH1 0x3F DUP4 ADD AND DUP2 ADD DUP2 DUP2 LT DUP6 DUP3 GT OR ISZERO PUSH2 0x137 JUMPI PUSH2 0x137 PUSH2 0xAC JUMP JUMPDEST PUSH1 0x40 MSTORE SWAP2 DUP3 MSTORE DUP5 DUP3 ADD SWAP3 POP DUP4 DUP2 ADD DUP6 ADD SWAP2 DUP9 DUP4 GT ISZERO PUSH2 0x155 JUMPI PUSH1 0x0 DUP1 REVERT JUMPDEST SWAP4 DUP6 ADD SWAP4 JUMPDEST DUP3 DUP6 LT ISZERO PUSH2 0x173 JUMPI DUP5 MLOAD DUP5 MSTORE SWAP4 DUP6 ADD SWAP4 SWAP3 DUP6 ADD SWAP3 PUSH2 0x15A JUMP JUMPDEST SWAP9 SWAP8 POP POP POP POP POP POP POP POP JUMP JUMPDEST PUSH4 0x4E487B71 PUSH1 0xE0 SHL PUSH1 0x0 MSTORE PUSH1 0x32 PUSH1 0x4 MSTORE PUSH1 0x24 PUSH1 0x0 REVERT JUMPDEST PUSH1 0x0 PUSH1 0x1 DUP3 ADD PUSH2 0x1B5 JUMPI PUSH4 0x4E487B71 PUSH1 0xE0 SHL PUSH1 0x0 MSTORE PUSH1 0x11 PUSH1 0x4 MSTORE PUSH1 0x24 PUSH1 0x0 REVERT JUMPDEST POP PUSH1 0x1 ADD SWAP1 JUMP JUMPDEST PUSH2 0x29D DUP1 PUSH2 0x1CB PUSH1 0x0 CODECOPY PUSH1 0x0 RETURN INVALID PUSH1 0x80 PUSH1 0x40 MSTORE CALLVALUE DUP1 ISZERO PUSH2 0x10 JUMPI PUSH1 0x0 DUP1 REVERT JUMPDEST POP PUSH1 0x4 CALLDATASIZE LT PUSH2 0x36 JUMPI PUSH1 0x0 CALLDATALOAD PUSH1 0xE0 SHR DUP1 PUSH4 0x13CF08B EQ PUSH2 0x3B JUMPI DUP1 PUSH4 0x7D260BAE EQ PUSH2 0x67 JUMPI JUMPDEST PUSH1 0x0 DUP1 REVERT JUMPDEST PUSH2 0x4E PUSH2 0x49 CALLDATASIZE PUSH1 0x4 PUSH2 0x1F0 JUMP JUMPDEST PUSH2 0x71 JUMP JUMPDEST PUSH1 0x40 DUP1 MLOAD SWAP3 DUP4 MSTORE PUSH1 0x20 DUP4 ADD SWAP2 SWAP1 SWAP2 MSTORE ADD PUSH1 0x40 MLOAD DUP1 SWAP2 SUB SWAP1 RETURN JUMPDEST PUSH2 0x6F PUSH2 0x9F JUMP JUMPDEST STOP JUMPDEST PUSH1 0x0 DUP2 DUP2 SLOAD DUP2 LT PUSH2 0x81 JUMPI PUSH1 0x0 DUP1 REVERT JUMPDEST PUSH1 0x0 SWAP2 DUP3 MSTORE PUSH1 0x20 SWAP1 SWAP2 KECCAK256 PUSH1 0x2 SWAP1 SWAP2 MUL ADD DUP1 SLOAD PUSH1 0x1 SWAP1 SWAP2 ADD SLOAD SWAP1 SWAP2 POP DUP3 JUMP JUMPDEST PUSH1 0x1 PUSH1 0x0 JUMPDEST PUSH1 0x0 DUP1 PUSH2 0xB2 PUSH1 0x1 DUP6 PUSH2 0x21F JUMP JUMPDEST DUP2 SLOAD DUP2 LT PUSH2 0xC2 JUMPI PUSH2 0xC2 PUSH2 0x238 JUMP JUMPDEST PUSH1 0x0 SWAP2 DUP3 MSTORE PUSH1 0x20 DUP1 DUP4 KECCAK256 PUSH1 0x40 DUP1 MLOAD DUP1 DUP3 ADD SWAP1 SWAP2 MSTORE PUSH1 0x2 SWAP1 SWAP4 MUL ADD DUP1 SLOAD DUP4 MSTORE PUSH1 0x1 ADD SLOAD SWAP1 DUP3 ADD MSTORE DUP2 SLOAD SWAP1 SWAP3 POP DUP5 SWAP1 DUP2 LT PUSH2 0xFD JUMPI PUSH2 0xFD PUSH2 0x238 JUMP JUMPDEST PUSH1 0x0 SWAP2 DUP3 MSTORE PUSH1 0x20 SWAP1 SWAP2 KECCAK256 PUSH1 0x2 SWAP1 SWAP2 MUL ADD SLOAD DUP2 MLOAD GT ISZERO PUSH2 0x1BC JUMPI PUSH1 0x0 DUP4 DUP2 SLOAD DUP2 LT PUSH2 0x129 JUMPI PUSH2 0x129 PUSH2 0x238 JUMP JUMPDEST SWAP1 PUSH1 0x0 MSTORE PUSH1 0x20 PUSH1 0x0 KECCAK256 SWAP1 PUSH1 0x2 MUL ADD PUSH1 0x0 PUSH1 0x1 DUP6 PUSH2 0x146 SWAP2 SWAP1 PUSH2 0x21F JUMP JUMPDEST DUP2 SLOAD DUP2 LT PUSH2 0x156 JUMPI PUSH2 0x156 PUSH2 0x238 JUMP JUMPDEST SWAP1 PUSH1 0x0 MSTORE PUSH1 0x20 PUSH1 0x0 KECCAK256 SWAP1 PUSH1 0x2 MUL ADD PUSH1 0x0 DUP3 ADD SLOAD DUP2 PUSH1 0x0 ADD SSTORE PUSH1 0x1 DUP3 ADD SLOAD DUP2 PUSH1 0x1 ADD SSTORE SWAP1 POP POP DUP1 PUSH1 0x0 DUP5 DUP2 SLOAD DUP2 LT PUSH2 0x18F JUMPI PUSH2 0x18F PUSH2 0x238 JUMP JUMPDEST PUSH1 0x0 SWAP2 DUP3 MSTORE PUSH1 0x20 SWAP2 DUP3 SWAP1 KECCAK256 DUP4 MLOAD PUSH1 0x2 SWAP1 SWAP3 MUL ADD SWAP1 DUP2 SSTORE SWAP2 ADD MLOAD PUSH1 0x1 SWAP1 SWAP2 ADD SSTORE DUP2 PUSH2 0x1B8 DUP2 PUSH2 0x24E JUMP JUMPDEST SWAP3 POP POP JUMPDEST DUP3 PUSH2 0x1C6 DUP2 PUSH2 0x24E JUMP JUMPDEST PUSH1 0x0 SLOAD SWAP1 SWAP5 POP DUP5 LT SWAP1 POP PUSH2 0x1EA JUMPI DUP2 PUSH1 0x0 SUB PUSH2 0x1E1 JUMPI POP POP POP JUMP JUMPDEST PUSH1 0x0 SWAP2 POP PUSH1 0x1 SWAP3 POP JUMPDEST POP PUSH2 0xA4 JUMP JUMPDEST PUSH1 0x0 PUSH1 0x20 DUP3 DUP5 SUB SLT ISZERO PUSH2 0x202 JUMPI PUSH1 0x0 DUP1 REVERT JUMPDEST POP CALLDATALOAD SWAP2 SWAP1 POP JUMP JUMPDEST PUSH4 0x4E487B71 PUSH1 0xE0 SHL PUSH1 0x0 MSTORE PUSH1 0x11 PUSH1 0x4 MSTORE PUSH1 0x24 PUSH1 0x0 REVERT JUMPDEST DUP2 DUP2 SUB DUP2 DUP2 GT ISZERO PUSH2 0x232 JUMPI PUSH2 0x232 PUSH2 0x209 JUMP JUMPDEST SWAP3 SWAP2 POP POP JUMP JUMPDEST PUSH4 0x4E487B71 PUSH1 0xE0 SHL PUSH1 0x0 MSTORE PUSH1 0x32 PUSH1 0x4 MSTORE PUSH1 0x24 PUSH1 0x0 REVERT JUMPDEST PUSH1 0x0 PUSH1 0x1 DUP3 ADD PUSH2 0x260 JUMPI PUSH2 0x260 PUSH2 0x209 JUMP JUMPDEST POP PUSH1 0x1 ADD SWAP1 JUMP INVALID LOG2 PUSH5 0x6970667358 0x22 SLT KECCAK256 PUSH9 0x4A8D0E15F0BB3820AA 0xBD ORIGIN 0xE6 STATICCALL DUP3 0x29 0xCC SWAP14 0xB4 MSTORE8 0x4E CHAINID SWAP7 SWAP7 MSTORE8 0xEC 0x4D EQ CALLCODE 0xE2 SWAP4 SWAP6 PUSH5 0x736F6C6343 STOP ADDMOD GT STOP CALLER "},"methodIdentifiers":{"proposals(uint256)":"013cf08b","sortProposals()":"7d260bae"}}}}}