{"contracts/CorrectSortedBallot.sol":{"CorrectSortedBallot":{"abi":[{"inputs":[{"internalType":"bytes32[]","name":"proposalNames","type":"bytes32[]"}],"stateMutability":"nonpayable","type":"constructor"},{"inputs":[{"internalType":"uint256","name":"","type":"uint256"}],"name":"proposals","outputs":[{"internalType":"bytes32","name":"name","type":"bytes32"},{"internalType":"uint256","name":"voteCount","type":"uint256"}],"stateMutability":"view","type":"function"},{"inputs":[{"internalType":"uint256","name":"","type":"uint256"}],"name":"proposalsBeingSorted","outputs":[{"internalType":"bytes32","name":"name","type":"bytes32"},{"internalType":"uint256","name":"voteCount","type":"uint256"}],"stateMutability":"view","type":"function"},{"inputs":[],"name":"restartSorting","outputs":[],"stateMutability":"nonpayable","type":"function"},{"inputs":[],"name":"savedIndex","outputs":[{"internalType":"uint256","name":"","type":"uint256"}],"stateMutability":"view","type":"function"},{"inputs":[{"internalType":"uint256","name":"steps","type":"uint256"}],"name":"sortProposals","outputs":[{"internalType":"bool","name":"","type":"bool"}],"stateMutability":"nonpayable","type":"function"},{"inputs":[],"name":"sorted","outputs":[{"internalType":"bool","name":"isSorted","type":"bool"}],"stateMutability":"view","type":"function"},{"inputs":[],"name":"sortedWords","outputs":[{"internalType":"uint256","name":"","type":"uint256"}],"stateMutability":"view","type":"function"},{"inputs":[],"name":"swaps","outputs":[{"internalType":"uint256","name":"","type":"uint256"}],"stateMutability":"view","type":"function"}],"evm":{"bytecode":{"linkReferences":{},"object":"608060405234801561001057600080fd5b5060405161053e38038061053e83398101604081905261002f91610154565b60005b81518110156100a5576000604051806040016040528084848151811061005a5761005a610211565b6020908102919091018101518252600091810182905283546001818101865594835291819020835160029093020191825591909101519101558061009d81610227565b915050610032565b5060016004819055600080546100bc9291906100c3565b505061024e565b8280548282559060005260206000209060020281019282156101135760005260206000209160020282015b82811115610113578254825560018084015490830155600292830192909101906100ee565b5061011f929150610123565b5090565b5b8082111561011f5760008082556001820155600201610124565b634e487b7160e01b600052604160045260246000fd5b6000602080838503121561016757600080fd5b82516001600160401b038082111561017e57600080fd5b818501915085601f83011261019257600080fd5b8151818111156101a4576101a461013e565b8060051b604051601f19603f830116810181811085821117156101c9576101c961013e565b6040529182528482019250838101850191888311156101e757600080fd5b938501935b82851015610205578451845293850193928501926101ec565b98975050505050505050565b634e487b7160e01b600052603260045260246000fd5b60006001820161024757634e487b7160e01b600052601160045260246000fd5b5060010190565b6102e18061025d6000396000f3fe608060405234801561001057600080fd5b50600436106100885760003560e01c80634c9841851161005b5780634c984185146100f35780637058201e146100fc578063c06d634414610105578063e4420c351461011857600080fd5b8063013cf08b1461008d578063214d84b8146100ba5780632de2c5ac146100c457806331b8f1e5146100dc575b600080fd5b6100a061009b366004610252565b61012b565b604080519283526020830191909152015b60405180910390f35b6100c2610159565b005b600054600354145b60405190151581526020016100b1565b6100e560045481565b6040519081526020016100b1565b6100e560025481565b6100e560035481565b6100a0610113366004610252565b61017b565b6100cc610126366004610252565b61018b565b6000818154811061013b57600080fd5b60009182526020909120600290910201805460019091015490915082565b60006002819055600381905560016004819055815461017892906101d7565b50565b6001818154811061013b57600080fd5b6000805b60015460035410156101bd578281106101ab5750600092915050565b806101b58161026b565b91505061018f565b600180546101cd916000916101d7565b5060019392505050565b8280548282559060005260206000209060020281019282156102275760005260206000209160020282015b8281111561022757825482556001808401549083015560029283019290910190610202565b50610233929150610237565b5090565b5b808211156102335760008082556001820155600201610238565b60006020828403121561026457600080fd5b5035919050565b6000600182016102a4577f4e487b7100000000000000000000000000000000000000000000000000000000600052601160045260246000fd5b506001019056fea264697066735822122057674561ea31e58b0a2435a8d7a025b70f98af481d2734e3e8fd9e1e8cd538b064736f6c63430008110033","opcodes":"PUSH1 0x80 PUSH1 0x40 MSTORE CALLVALUE DUP1 ISZERO PUSH2 0x10 JUMPI PUSH1 0x0 DUP1 REVERT JUMPDEST POP PUSH1 0x40 MLOAD PUSH2 0x53E CODESIZE SUB DUP1 PUSH2 0x53E DUP4 CODECOPY DUP2 ADD PUSH1 0x40 DUP2 SWAP1 MSTORE PUSH2 0x2F SWAP2 PUSH2 0x154 JUMP JUMPDEST PUSH1 0x0 JUMPDEST DUP2 MLOAD DUP2 LT ISZERO PUSH2 0xA5 JUMPI PUSH1 0x0 PUSH1 0x40 MLOAD DUP1 PUSH1 0x40 ADD PUSH1 0x40 MSTORE DUP1 DUP5 DUP5 DUP2 MLOAD DUP2 LT PUSH2 0x5A JUMPI PUSH2 0x5A PUSH2 0x211 JUMP JUMPDEST PUSH1 0x20 SWAP1 DUP2 MUL SWAP2 SWAP1 SWAP2 ADD DUP2 ADD MLOAD DUP3 MSTORE PUSH1 0x0 SWAP2 DUP2 ADD DUP3 SWAP1 MSTORE DUP4 SLOAD PUSH1 0x1 DUP2 DUP2 ADD DUP7 SSTORE SWAP5 DUP4 MSTORE SWAP2 DUP2 SWAP1 KECCAK256 DUP4 MLOAD PUSH1 0x2 SWAP1 SWAP4 MUL ADD SWAP2 DUP3 SSTORE SWAP2 SWAP1 SWAP2 ADD MLOAD SWAP2 ADD SSTORE DUP1 PUSH2 0x9D DUP2 PUSH2 0x227 JUMP JUMPDEST SWAP2 POP POP PUSH2 0x32 JUMP JUMPDEST POP PUSH1 0x1 PUSH1 0x4 DUP2 SWAP1 SSTORE PUSH1 0x0 DUP1 SLOAD PUSH2 0xBC SWAP3 SWAP2 SWAP1 PUSH2 0xC3 JUMP JUMPDEST POP POP PUSH2 0x24E JUMP JUMPDEST DUP3 DUP1 SLOAD DUP3 DUP3 SSTORE SWAP1 PUSH1 0x0 MSTORE PUSH1 0x20 PUSH1 0x0 KECCAK256 SWAP1 PUSH1 0x2 MUL DUP2 ADD SWAP3 DUP3 ISZERO PUSH2 0x113 JUMPI PUSH1 0x0 MSTORE PUSH1 0x20 PUSH1 0x0 KECCAK256 SWAP2 PUSH1 0x2 MUL DUP3 ADD JUMPDEST DUP3 DUP2 GT ISZERO PUSH2 0x113 JUMPI DUP3 SLOAD DUP3 SSTORE PUSH1 0x1 DUP1 DUP5 ADD SLOAD SWAP1 DUP4 ADD SSTORE PUSH1 0x2 SWAP3 DUP4 ADD SWAP3 SWAP1 SWAP2 ADD SWAP1 PUSH2 0xEE JUMP JUMPDEST POP PUSH2 0x11F SWAP3 SWAP2 POP PUSH2 0x123 JUMP JUMPDEST POP SWAP1 JUMP JUMPDEST JUMPDEST DUP1 DUP3 GT ISZERO PUSH2 0x11F JUMPI PUSH1 0x0 DUP1 DUP3 SSTORE PUSH1 0x1 DUP3 ADD SSTORE PUSH1 0x2 ADD PUSH2 0x124 JUMP JUMPDEST PUSH4 0x4E487B71 PUSH1 0xE0 SHL PUSH1 0x0 MSTORE PUSH1 0x41 PUSH1 0x4 MSTORE PUSH1 0x24 PUSH1 0x0 REVERT JUMPDEST PUSH1 0x0 PUSH1 0x20 DUP1 DUP4 DUP6 SUB SLT ISZERO PUSH2 0x167 JUMPI PUSH1 0x0 DUP1 REVERT JUMPDEST DUP3 MLOAD PUSH1 0x1 PUSH1 0x1 PUSH1 0x40 SHL SUB DUP1 DUP3 GT ISZERO PUSH2 0x17E JUMPI PUSH1 0x0 DUP1 REVERT JUMPDEST DUP2 DUP6 ADD SWAP2 POP DUP6 PUSH1 0x1F DUP4 ADD SLT PUSH2 0x192 JUMPI PUSH1 0x0 DUP1 REVERT JUMPDEST DUP2 MLOAD DUP2 DUP2 GT ISZERO PUSH2 0x1A4 JUMPI PUSH2 0x1A4 PUSH2 0x13E JUMP JUMPDEST DUP1 PUSH1 0x5 SHL PUSH1 0x40 MLOAD PUSH1 0x1F NOT PUSH1 0x3F DUP4 ADD AND DUP2 ADD DUP2 DUP2 LT DUP6 DUP3 GT OR ISZERO PUSH2 0x1C9 JUMPI PUSH2 0x1C9 PUSH2 0x13E JUMP JUMPDEST PUSH1 0x40 MSTORE SWAP2 DUP3 MSTORE DUP5 DUP3 ADD SWAP3 POP DUP4 DUP2 ADD DUP6 ADD SWAP2 DUP9 DUP4 GT ISZERO PUSH2 0x1E7 JUMPI PUSH1 0x0 DUP1 REVERT JUMPDEST SWAP4 DUP6 ADD SWAP4 JUMPDEST DUP3 DUP6 LT ISZERO PUSH2 0x205 JUMPI DUP5 MLOAD DUP5 MSTORE SWAP4 DUP6 ADD SWAP4 SWAP3 DUP6 ADD SWAP3 PUSH2 0x1EC JUMP JUMPDEST SWAP9 SWAP8 POP POP POP POP POP POP POP POP JUMP JUMPDEST PUSH4 0x4E487B71 PUSH1 0xE0 SHL PUSH1 0x0 MSTORE PUSH1 0x32 PUSH1 0x4 MSTORE PUSH1 0x24 PUSH1 0x0 REVERT JUMPDEST PUSH1 0x0 PUSH1 0x1 DUP3 ADD PUSH2 0x247 JUMPI PUSH4 0x4E487B71 PUSH1 0xE0 SHL PUSH1 0x0 MSTORE PUSH1 0x11 PUSH1 0x4 MSTORE PUSH1 0x24 PUSH1 0x0 REVERT JUMPDEST POP PUSH1 0x1 ADD SWAP1 JUMP JUMPDEST PUSH2 0x2E1 DUP1 PUSH2 0x25D PUSH1 0x0 CODECOPY PUSH1 0x0 RETURN INVALID PUSH1 0x80 PUSH1 0x40 MSTORE CALLVALUE DUP1 ISZERO PUSH2 0x10 JUMPI PUSH1 0x0 DUP1 REVERT JUMPDEST POP PUSH1 0x4 CALLDATASIZE LT PUSH2 0x88 JUMPI PUSH1 0x0 CALLDATALOAD PUSH1 0xE0 SHR DUP1 PUSH4 0x4C984185 GT PUSH2 0x5B JUMPI DUP1 PUSH4 0x4C984185 EQ PUSH2 0xF3 JUMPI DUP1 PUSH4 0x7058201E EQ PUSH2 0xFC JUMPI DUP1 PUSH4 0xC06D6344 EQ PUSH2 0x105 JUMPI DUP1 PUSH4 0xE4420C35 EQ PUSH2 0x118 JUMPI PUSH1 0x0 DUP1 REVERT JUMPDEST DUP1 PUSH4 0x13CF08B EQ PUSH2 0x8D JUMPI DUP1 PUSH4 0x214D84B8 EQ PUSH2 0xBA JUMPI DUP1 PUSH4 0x2DE2C5AC EQ PUSH2 0xC4 JUMPI DUP1 PUSH4 0x31B8F1E5 EQ PUSH2 0xDC JUMPI JUMPDEST PUSH1 0x0 DUP1 REVERT JUMPDEST PUSH2 0xA0 PUSH2 0x9B CALLDATASIZE PUSH1 0x4 PUSH2 0x252 JUMP JUMPDEST PUSH2 0x12B JUMP JUMPDEST PUSH1 0x40 DUP1 MLOAD SWAP3 DUP4 MSTORE PUSH1 0x20 DUP4 ADD SWAP2 SWAP1 SWAP2 MSTORE ADD JUMPDEST PUSH1 0x40 MLOAD DUP1 SWAP2 SUB SWAP1 RETURN JUMPDEST PUSH2 0xC2 PUSH2 0x159 JUMP JUMPDEST STOP JUMPDEST PUSH1 0x0 SLOAD PUSH1 0x3 SLOAD EQ JUMPDEST PUSH1 0x40 MLOAD SWAP1 ISZERO ISZERO DUP2 MSTORE PUSH1 0x20 ADD PUSH2 0xB1 JUMP JUMPDEST PUSH2 0xE5 PUSH1 0x4 SLOAD DUP2 JUMP JUMPDEST PUSH1 0x40 MLOAD SWAP1 DUP2 MSTORE PUSH1 0x20 ADD PUSH2 0xB1 JUMP JUMPDEST PUSH2 0xE5 PUSH1 0x2 SLOAD DUP2 JUMP JUMPDEST PUSH2 0xE5 PUSH1 0x3 SLOAD DUP2 JUMP JUMPDEST PUSH2 0xA0 PUSH2 0x113 CALLDATASIZE PUSH1 0x4 PUSH2 0x252 JUMP JUMPDEST PUSH2 0x17B JUMP JUMPDEST PUSH2 0xCC PUSH2 0x126 CALLDATASIZE PUSH1 0x4 PUSH2 0x252 JUMP JUMPDEST PUSH2 0x18B JUMP JUMPDEST PUSH1 0x0 DUP2 DUP2 SLOAD DUP2 LT PUSH2 0x13B JUMPI PUSH1 0x0 DUP1 REVERT JUMPDEST PUSH1 0x0 SWAP2 DUP3 MSTORE PUSH1 0x20 SWAP1 SWAP2 KECCAK256 PUSH1 0x2 SWAP1 SWAP2 MUL ADD DUP1 SLOAD PUSH1 0x1 SWAP1 SWAP2 ADD SLOAD SWAP1 SWAP2 POP DUP3 JUMP JUMPDEST PUSH1 0x0 PUSH1 0x2 DUP2 SWAP1 SSTORE PUSH1 0x3 DUP2 SWAP1 SSTORE PUSH1 0x1 PUSH1 0x4 DUP2 SWAP1 SSTORE DUP2 SLOAD PUSH2 0x178 SWAP3 SWAP1 PUSH2 0x1D7 JUMP JUMPDEST POP JUMP JUMPDEST PUSH1 0x1 DUP2 DUP2 SLOAD DUP2 LT PUSH2 0x13B JUMPI PUSH1 0x0 DUP1 REVERT JUMPDEST PUSH1 0x0 DUP1 JUMPDEST PUSH1 0x1 SLOAD PUSH1 0x3 SLOAD LT ISZERO PUSH2 0x1BD JUMPI DUP3 DUP2 LT PUSH2 0x1AB JUMPI POP PUSH1 0x0 SWAP3 SWAP2 POP POP JUMP JUMPDEST DUP1 PUSH2 0x1B5 DUP2 PUSH2 0x26B JUMP JUMPDEST SWAP2 POP POP PUSH2 0x18F JUMP JUMPDEST PUSH1 0x1 DUP1 SLOAD PUSH2 0x1CD SWAP2 PUSH1 0x0 SWAP2 PUSH2 0x1D7 JUMP JUMPDEST POP PUSH1 0x1 SWAP4 SWAP3 POP POP POP JUMP JUMPDEST DUP3 DUP1 SLOAD DUP3 DUP3 SSTORE SWAP1 PUSH1 0x0 MSTORE PUSH1 0x20 PUSH1 0x0 KECCAK256 SWAP1 PUSH1 0x2 MUL DUP2 ADD SWAP3 DUP3 ISZERO PUSH2 0x227 JUMPI PUSH1 0x0 MSTORE PUSH1 0x20 PUSH1 0x0 KECCAK256 SWAP2 PUSH1 0x2 MUL DUP3 ADD JUMPDEST DUP3 DUP2 GT ISZERO PUSH2 0x227 JUMPI DUP3 SLOAD DUP3 SSTORE PUSH1 0x1 DUP1 DUP5 ADD SLOAD SWAP1 DUP4 ADD SSTORE PUSH1 0x2 SWAP3 DUP4 ADD SWAP3 SWAP1 SWAP2 ADD SWAP1 PUSH2 0x202 JUMP JUMPDEST POP PUSH2 0x233 SWAP3 SWAP2 POP PUSH2 0x237 JUMP JUMPDEST POP SWAP1 JUMP JUMPDEST JUMPDEST DUP1 DUP3 GT ISZERO PUSH2 0x233 JUMPI PUSH1 0x0 DUP1 DUP3 SSTORE PUSH1 0x1 DUP3 ADD SSTORE PUSH1 0x2 ADD PUSH2 0x238 JUMP JUMPDEST PUSH1 0x0 PUSH1 0x20 DUP3 DUP5 SUB SLT ISZERO PUSH2 0x264 JUMPI PUSH1 0x0 DUP1 REVERT JUMPDEST POP CALLDATALOAD SWAP2 SWAP1 POP JUMP JUMPDEST PUSH1 0x0 PUSH1 0x1 DUP3 ADD PUSH2 0x2A4 JUMPI PUSH32 0x4E487B7100000000000000000000000000000000000000000000000000000000 PUSH1 0x0 MSTORE PUSH1 0x11 PUSH1 0x4 MSTORE PUSH1 0x24 PUSH1 0x0 REVERT JUMPDEST POP PUSH1 0x1 ADD SWAP1 JUMP INVALID LOG2 PUSH5 0x6970667358 0x22 SLT KECCAK256 JUMPI PUSH8 0x4561EA31E58B0A24 CALLDATALOAD 0xA8 0xD7 LOG0 0x25 0xB7 0xF SWAP9 0xAF BASEFEE SAR 0x27 CALLVALUE 0xE3 0xE8 REVERT SWAP15 0x1E DUP13 0xD5 CODESIZE 0xB0 PUSH5 0x736F6C6343 STOP ADDMOD GT STOP CALLER "},"methodIdentifiers":{"proposals(uint256)":"013cf08b","proposalsBeingSorted(uint256)":"c06d6344","restartSorting()":"214d84b8","savedIndex()":"31b8f1e5","sortProposals(uint256)":"e4420c35","sorted()":"2de2c5ac","sortedWords()":"7058201e","swaps()":"4c984185"}}}}}