{"contracts/TokenSale.sol":{"TokenSale":{"abi":[{"inputs":[{"internalType":"uint256","name":"_ratio","type":"uint256"},{"internalType":"address","name":"_paymentToken","type":"address"}],"stateMutability":"nonpayable","type":"constructor"},{"inputs":[],"name":"paymentToken","outputs":[{"internalType":"contract IMyERC20Token","name":"","type":"address"}],"stateMutability":"view","type":"function"},{"inputs":[],"name":"purchaseTokens","outputs":[],"stateMutability":"payable","type":"function"},{"inputs":[],"name":"ratio","outputs":[{"internalType":"uint256","name":"","type":"uint256"}],"stateMutability":"view","type":"function"}],"evm":{"bytecode":{"linkReferences":{},"object":"608060405234801561001057600080fd5b506040516104853803806104858339818101604052810190610032919061011a565b8160008190555080600160006101000a81548173ffffffffffffffffffffffffffffffffffffffff021916908373ffffffffffffffffffffffffffffffffffffffff160217905550505061015a565b600080fd5b6000819050919050565b61009981610086565b81146100a457600080fd5b50565b6000815190506100b681610090565b92915050565b600073ffffffffffffffffffffffffffffffffffffffff82169050919050565b60006100e7826100bc565b9050919050565b6100f7816100dc565b811461010257600080fd5b50565b600081519050610114816100ee565b92915050565b6000806040838503121561013157610130610081565b5b600061013f858286016100a7565b925050602061015085828601610105565b9150509250929050565b61031c806101696000396000f3fe6080604052600436106100345760003560e01c80633013ce29146100395780633290ce291461006457806371ca337d1461006e575b600080fd5b34801561004557600080fd5b5061004e610099565b60405161005b91906101ed565b60405180910390f35b61006c6100bf565b005b34801561007a57600080fd5b50610083610168565b6040516100909190610221565b60405180910390f35b600160009054906101000a900473ffffffffffffffffffffffffffffffffffffffff1681565b600034905060008054826100d3919061026b565b9050600160009054906101000a900473ffffffffffffffffffffffffffffffffffffffff1673ffffffffffffffffffffffffffffffffffffffff166340c10f1933836040518363ffffffff1660e01b81526004016101329291906102bd565b600060405180830381600087803b15801561014c57600080fd5b505af1158015610160573d6000803e3d6000fd5b505050505050565b60005481565b600073ffffffffffffffffffffffffffffffffffffffff82169050919050565b6000819050919050565b60006101b36101ae6101a98461016e565b61018e565b61016e565b9050919050565b60006101c582610198565b9050919050565b60006101d7826101ba565b9050919050565b6101e7816101cc565b82525050565b600060208201905061020260008301846101de565b92915050565b6000819050919050565b61021b81610208565b82525050565b60006020820190506102366000830184610212565b92915050565b7f4e487b7100000000000000000000000000000000000000000000000000000000600052601260045260246000fd5b600061027682610208565b915061028183610208565b9250826102915761029061023c565b5b828204905092915050565b60006102a78261016e565b9050919050565b6102b78161029c565b82525050565b60006040820190506102d260008301856102ae565b6102df6020830184610212565b939250505056fea2646970667358221220ec841c58b87afd2981aeaf95dac1c6e02ab78c29ae647d28d5763daa660d960b64736f6c63430008110033","opcodes":"PUSH1 0x80 PUSH1 0x40 MSTORE CALLVALUE DUP1 ISZERO PUSH2 0x10 JUMPI PUSH1 0x0 DUP1 REVERT JUMPDEST POP PUSH1 0x40 MLOAD PUSH2 0x485 CODESIZE SUB DUP1 PUSH2 0x485 DUP4 CODECOPY DUP2 DUP2 ADD PUSH1 0x40 MSTORE DUP2 ADD SWAP1 PUSH2 0x32 SWAP2 SWAP1 PUSH2 0x11A JUMP JUMPDEST DUP2 PUSH1 0x0 DUP2 SWAP1 SSTORE POP DUP1 PUSH1 0x1 PUSH1 0x0 PUSH2 0x100 EXP DUP2 SLOAD DUP2 PUSH20 0xFFFFFFFFFFFFFFFFFFFFFFFFFFFFFFFFFFFFFFFF MUL NOT AND SWAP1 DUP4 PUSH20 0xFFFFFFFFFFFFFFFFFFFFFFFFFFFFFFFFFFFFFFFF AND MUL OR SWAP1 SSTORE POP POP POP PUSH2 0x15A JUMP JUMPDEST PUSH1 0x0 DUP1 REVERT JUMPDEST PUSH1 0x0 DUP2 SWAP1 POP SWAP2 SWAP1 POP JUMP JUMPDEST PUSH2 0x99 DUP2 PUSH2 0x86 JUMP JUMPDEST DUP2 EQ PUSH2 0xA4 JUMPI PUSH1 0x0 DUP1 REVERT JUMPDEST POP JUMP JUMPDEST PUSH1 0x0 DUP2 MLOAD SWAP1 POP PUSH2 0xB6 DUP2 PUSH2 0x90 JUMP JUMPDEST SWAP3 SWAP2 POP POP JUMP JUMPDEST PUSH1 0x0 PUSH20 0xFFFFFFFFFFFFFFFFFFFFFFFFFFFFFFFFFFFFFFFF DUP3 AND SWAP1 POP SWAP2 SWAP1 POP JUMP JUMPDEST PUSH1 0x0 PUSH2 0xE7 DUP3 PUSH2 0xBC JUMP JUMPDEST SWAP1 POP SWAP2 SWAP1 POP JUMP JUMPDEST PUSH2 0xF7 DUP2 PUSH2 0xDC JUMP JUMPDEST DUP2 EQ PUSH2 0x102 JUMPI PUSH1 0x0 DUP1 REVERT JUMPDEST POP JUMP JUMPDEST PUSH1 0x0 DUP2 MLOAD SWAP1 POP PUSH2 0x114 DUP2 PUSH2 0xEE JUMP JUMPDEST SWAP3 SWAP2 POP POP JUMP JUMPDEST PUSH1 0x0 DUP1 PUSH1 0x40 DUP4 DUP6 SUB SLT ISZERO PUSH2 0x131 JUMPI PUSH2 0x130 PUSH2 0x81 JUMP JUMPDEST JUMPDEST PUSH1 0x0 PUSH2 0x13F DUP6 DUP3 DUP7 ADD PUSH2 0xA7 JUMP JUMPDEST SWAP3 POP POP PUSH1 0x20 PUSH2 0x150 DUP6 DUP3 DUP7 ADD PUSH2 0x105 JUMP JUMPDEST SWAP2 POP POP SWAP3 POP SWAP3 SWAP1 POP JUMP JUMPDEST PUSH2 0x31C DUP1 PUSH2 0x169 PUSH1 0x0 CODECOPY PUSH1 0x0 RETURN INVALID PUSH1 0x80 PUSH1 0x40 MSTORE PUSH1 0x4 CALLDATASIZE LT PUSH2 0x34 JUMPI PUSH1 0x0 CALLDATALOAD PUSH1 0xE0 SHR DUP1 PUSH4 0x3013CE29 EQ PUSH2 0x39 JUMPI DUP1 PUSH4 0x3290CE29 EQ PUSH2 0x64 JUMPI DUP1 PUSH4 0x71CA337D EQ PUSH2 0x6E JUMPI JUMPDEST PUSH1 0x0 DUP1 REVERT JUMPDEST CALLVALUE DUP1 ISZERO PUSH2 0x45 JUMPI PUSH1 0x0 DUP1 REVERT JUMPDEST POP PUSH2 0x4E PUSH2 0x99 JUMP JUMPDEST PUSH1 0x40 MLOAD PUSH2 0x5B SWAP2 SWAP1 PUSH2 0x1ED JUMP JUMPDEST PUSH1 0x40 MLOAD DUP1 SWAP2 SUB SWAP1 RETURN JUMPDEST PUSH2 0x6C PUSH2 0xBF JUMP JUMPDEST STOP JUMPDEST CALLVALUE DUP1 ISZERO PUSH2 0x7A JUMPI PUSH1 0x0 DUP1 REVERT JUMPDEST POP PUSH2 0x83 PUSH2 0x168 JUMP JUMPDEST PUSH1 0x40 MLOAD PUSH2 0x90 SWAP2 SWAP1 PUSH2 0x221 JUMP JUMPDEST PUSH1 0x40 MLOAD DUP1 SWAP2 SUB SWAP1 RETURN JUMPDEST PUSH1 0x1 PUSH1 0x0 SWAP1 SLOAD SWAP1 PUSH2 0x100 EXP SWAP1 DIV PUSH20 0xFFFFFFFFFFFFFFFFFFFFFFFFFFFFFFFFFFFFFFFF AND DUP2 JUMP JUMPDEST PUSH1 0x0 CALLVALUE SWAP1 POP PUSH1 0x0 DUP1 SLOAD DUP3 PUSH2 0xD3 SWAP2 SWAP1 PUSH2 0x26B JUMP JUMPDEST SWAP1 POP PUSH1 0x1 PUSH1 0x0 SWAP1 SLOAD SWAP1 PUSH2 0x100 EXP SWAP1 DIV PUSH20 0xFFFFFFFFFFFFFFFFFFFFFFFFFFFFFFFFFFFFFFFF AND PUSH20 0xFFFFFFFFFFFFFFFFFFFFFFFFFFFFFFFFFFFFFFFF AND PUSH4 0x40C10F19 CALLER DUP4 PUSH1 0x40 MLOAD DUP4 PUSH4 0xFFFFFFFF AND PUSH1 0xE0 SHL DUP2 MSTORE PUSH1 0x4 ADD PUSH2 0x132 SWAP3 SWAP2 SWAP1 PUSH2 0x2BD JUMP JUMPDEST PUSH1 0x0 PUSH1 0x40 MLOAD DUP1 DUP4 SUB DUP2 PUSH1 0x0 DUP8 DUP1 EXTCODESIZE ISZERO DUP1 ISZERO PUSH2 0x14C JUMPI PUSH1 0x0 DUP1 REVERT JUMPDEST POP GAS CALL ISZERO DUP1 ISZERO PUSH2 0x160 JUMPI RETURNDATASIZE PUSH1 0x0 DUP1 RETURNDATACOPY RETURNDATASIZE PUSH1 0x0 REVERT JUMPDEST POP POP POP POP POP POP JUMP JUMPDEST PUSH1 0x0 SLOAD DUP2 JUMP JUMPDEST PUSH1 0x0 PUSH20 0xFFFFFFFFFFFFFFFFFFFFFFFFFFFFFFFFFFFFFFFF DUP3 AND SWAP1 POP SWAP2 SWAP1 POP JUMP JUMPDEST PUSH1 0x0 DUP2 SWAP1 POP SWAP2 SWAP1 POP JUMP JUMPDEST PUSH1 0x0 PUSH2 0x1B3 PUSH2 0x1AE PUSH2 0x1A9 DUP5 PUSH2 0x16E JUMP JUMPDEST PUSH2 0x18E JUMP JUMPDEST PUSH2 0x16E JUMP JUMPDEST SWAP1 POP SWAP2 SWAP1 POP JUMP JUMPDEST PUSH1 0x0 PUSH2 0x1C5 DUP3 PUSH2 0x198 JUMP JUMPDEST SWAP1 POP SWAP2 SWAP1 POP JUMP JUMPDEST PUSH1 0x0 PUSH2 0x1D7 DUP3 PUSH2 0x1BA JUMP JUMPDEST SWAP1 POP SWAP2 SWAP1 POP JUMP JUMPDEST PUSH2 0x1E7 DUP2 PUSH2 0x1CC JUMP JUMPDEST DUP3 MSTORE POP POP JUMP JUMPDEST PUSH1 0x0 PUSH1 0x20 DUP3 ADD SWAP1 POP PUSH2 0x202 PUSH1 0x0 DUP4 ADD DUP5 PUSH2 0x1DE JUMP JUMPDEST SWAP3 SWAP2 POP POP JUMP JUMPDEST PUSH1 0x0 DUP2 SWAP1 POP SWAP2 SWAP1 POP JUMP JUMPDEST PUSH2 0x21B DUP2 PUSH2 0x208 JUMP JUMPDEST DUP3 MSTORE POP POP JUMP JUMPDEST PUSH1 0x0 PUSH1 0x20 DUP3 ADD SWAP1 POP PUSH2 0x236 PUSH1 0x0 DUP4 ADD DUP5 PUSH2 0x212 JUMP JUMPDEST SWAP3 SWAP2 POP POP JUMP JUMPDEST PUSH32 0x4E487B7100000000000000000000000000000000000000000000000000000000 PUSH1 0x0 MSTORE PUSH1 0x12 PUSH1 0x4 MSTORE PUSH1 0x24 PUSH1 0x0 REVERT JUMPDEST PUSH1 0x0 PUSH2 0x276 DUP3 PUSH2 0x208 JUMP JUMPDEST SWAP2 POP PUSH2 0x281 DUP4 PUSH2 0x208 JUMP JUMPDEST SWAP3 POP DUP3 PUSH2 0x291 JUMPI PUSH2 0x290 PUSH2 0x23C JUMP JUMPDEST JUMPDEST DUP3 DUP3 DIV SWAP1 POP SWAP3 SWAP2 POP POP JUMP JUMPDEST PUSH1 0x0 PUSH2 0x2A7 DUP3 PUSH2 0x16E JUMP JUMPDEST SWAP1 POP SWAP2 SWAP1 POP JUMP JUMPDEST PUSH2 0x2B7 DUP2 PUSH2 0x29C JUMP JUMPDEST DUP3 MSTORE POP POP JUMP JUMPDEST PUSH1 0x0 PUSH1 0x40 DUP3 ADD SWAP1 POP PUSH2 0x2D2 PUSH1 0x0 DUP4 ADD DUP6 PUSH2 0x2AE JUMP JUMPDEST PUSH2 0x2DF PUSH1 0x20 DUP4 ADD DUP5 PUSH2 0x212 JUMP JUMPDEST SWAP4 SWAP3 POP POP POP JUMP INVALID LOG2 PUSH5 0x6970667358 0x22 SLT KECCAK256 0xEC DUP5 SHR PC 0xB8 PUSH27 0xFD2981AEAF95DAC1C6E02AB78C29AE647D28D5763DAA660D960B64 PUSH20 0x6F6C634300081100330000000000000000000000 "},"methodIdentifiers":{"paymentToken()":"3013ce29","purchaseTokens()":"3290ce29","ratio()":"71ca337d"}}}}}